{
  "contractName": "Fund",
  "abi": [
    {
      "inputs": [
        {
          "internalType": "address",
          "name": "_manager",
          "type": "address"
        },
        {
          "internalType": "string",
          "name": "_fundName",
          "type": "string"
        },
        {
          "internalType": "string",
          "name": "_desc",
          "type": "string"
        },
        {
          "internalType": "uint256",
          "name": "_minAmount",
          "type": "uint256"
        }
      ],
      "stateMutability": "nonpayable",
      "type": "constructor"
    },
    {
      "inputs": [
        {
          "internalType": "address",
          "name": "",
          "type": "address"
        }
      ],
      "name": "approvers",
      "outputs": [
        {
          "internalType": "uint256",
          "name": "",
          "type": "uint256"
        }
      ],
      "stateMutability": "view",
      "type": "function"
    },
    {
      "inputs": [],
      "name": "approversCount",
      "outputs": [
        {
          "internalType": "uint256",
          "name": "",
          "type": "uint256"
        }
      ],
      "stateMutability": "view",
      "type": "function"
    },
    {
      "inputs": [],
      "name": "desc",
      "outputs": [
        {
          "internalType": "string",
          "name": "",
          "type": "string"
        }
      ],
      "stateMutability": "view",
      "type": "function"
    },
    {
      "inputs": [],
      "name": "fundName",
      "outputs": [
        {
          "internalType": "string",
          "name": "",
          "type": "string"
        }
      ],
      "stateMutability": "view",
      "type": "function"
    },
    {
      "inputs": [],
      "name": "manager",
      "outputs": [
        {
          "internalType": "address",
          "name": "",
          "type": "address"
        }
      ],
      "stateMutability": "view",
      "type": "function"
    },
    {
      "inputs": [],
      "name": "minAmount",
      "outputs": [
        {
          "internalType": "uint256",
          "name": "",
          "type": "uint256"
        }
      ],
      "stateMutability": "view",
      "type": "function"
    },
    {
      "inputs": [
        {
          "internalType": "uint256",
          "name": "",
          "type": "uint256"
        }
      ],
      "name": "requests",
      "outputs": [
        {
          "internalType": "string",
          "name": "requestName",
          "type": "string"
        },
        {
          "internalType": "string",
          "name": "requestDesc",
          "type": "string"
        },
        {
          "internalType": "uint256",
          "name": "requestedAmount",
          "type": "uint256"
        },
        {
          "internalType": "address payable",
          "name": "receiverAddress",
          "type": "address"
        },
        {
          "internalType": "bool",
          "name": "isCompleted",
          "type": "bool"
        },
        {
          "internalType": "uint256",
          "name": "balance",
          "type": "uint256"
        }
      ],
      "stateMutability": "view",
      "type": "function"
    },
    {
      "inputs": [],
      "name": "donate",
      "outputs": [],
      "stateMutability": "payable",
      "type": "function"
    },
    {
      "inputs": [],
      "name": "getBalance",
      "outputs": [
        {
          "internalType": "uint256",
          "name": "",
          "type": "uint256"
        }
      ],
      "stateMutability": "view",
      "type": "function"
    },
    {
      "inputs": [
        {
          "internalType": "string",
          "name": "_requestName",
          "type": "string"
        },
        {
          "internalType": "string",
          "name": "_requestDesc",
          "type": "string"
        },
        {
          "internalType": "uint256",
          "name": "_requestedAmount",
          "type": "uint256"
        },
        {
          "internalType": "address",
          "name": "_receiverAddress",
          "type": "address"
        }
      ],
      "name": "createRequest",
      "outputs": [],
      "stateMutability": "nonpayable",
      "type": "function"
    },
    {
      "inputs": [
        {
          "internalType": "uint256",
          "name": "idx",
          "type": "uint256"
        }
      ],
      "name": "voteRequest",
      "outputs": [],
      "stateMutability": "payable",
      "type": "function"
    },
    {
      "inputs": [
        {
          "internalType": "uint256",
          "name": "idx",
          "type": "uint256"
        }
      ],
      "name": "finaliseAndSend",
      "outputs": [],
      "stateMutability": "payable",
      "type": "function"
    },
    {
      "inputs": [],
      "name": "getDetails",
      "outputs": [
        {
          "internalType": "string",
          "name": "",
          "type": "string"
        },
        {
          "internalType": "string",
          "name": "",
          "type": "string"
        },
        {
          "internalType": "address",
          "name": "",
          "type": "address"
        },
        {
          "internalType": "uint256",
          "name": "",
          "type": "uint256"
        },
        {
          "internalType": "uint256",
          "name": "",
          "type": "uint256"
        }
      ],
      "stateMutability": "view",
      "type": "function"
    }
  ],
  "bytecode": "0x608060405260006004553480156200001657600080fd5b50604051620024573803806200245783398181016040528101906200003c919062000439565b600283511162000083576040517f08c379a00000000000000000000000000000000000000000000000000000000081526004016200007a9062000570565b60405180910390fd5b60008111620000c9576040517f08c379a0000000000000000000000000000000000000000000000000000000008152600401620000c09062000608565b60405180910390fd5b836000806101000a81548173ffffffffffffffffffffffffffffffffffffffff021916908373ffffffffffffffffffffffffffffffffffffffff1602179055508260019080519060200190620001219291906200014c565b5081600290805190602001906200013a9291906200014c565b5080600381905550505050506200068f565b8280546200015a9062000659565b90600052602060002090601f0160209004810192826200017e5760008555620001ca565b82601f106200019957805160ff1916838001178555620001ca565b82800160010185558215620001ca579182015b82811115620001c9578251825591602001919060010190620001ac565b5b509050620001d99190620001dd565b5090565b5b80821115620001f8576000816000905550600101620001de565b5090565b6000604051905090565b600080fd5b600080fd5b600073ffffffffffffffffffffffffffffffffffffffff82169050919050565b60006200023d8262000210565b9050919050565b6200024f8162000230565b81146200025b57600080fd5b50565b6000815190506200026f8162000244565b92915050565b600080fd5b600080fd5b6000601f19601f8301169050919050565b7f4e487b7100000000000000000000000000000000000000000000000000000000600052604160045260246000fd5b620002ca826200027f565b810181811067ffffffffffffffff82111715620002ec57620002eb62000290565b5b80604052505050565b600062000301620001fc565b90506200030f8282620002bf565b919050565b600067ffffffffffffffff82111562000332576200033162000290565b5b6200033d826200027f565b9050602081019050919050565b60005b838110156200036a5780820151818401526020810190506200034d565b838111156200037a576000848401525b50505050565b600062000397620003918462000314565b620002f5565b905082815260208101848484011115620003b657620003b56200027a565b5b620003c38482856200034a565b509392505050565b600082601f830112620003e357620003e262000275565b5b8151620003f584826020860162000380565b91505092915050565b6000819050919050565b6200041381620003fe565b81146200041f57600080fd5b50565b600081519050620004338162000408565b92915050565b6000806000806080858703121562000456576200045562000206565b5b600062000466878288016200025e565b945050602085015167ffffffffffffffff8111156200048a57620004896200020b565b5b6200049887828801620003cb565b935050604085015167ffffffffffffffff811115620004bc57620004bb6200020b565b5b620004ca87828801620003cb565b9250506060620004dd8782880162000422565b91505092959194509250565b600082825260208201905092915050565b7f46756e64204e616d652073686f756c6420686176652070726f7065722074697460008201527f6c65000000000000000000000000000000000000000000000000000000000000602082015250565b600062000558602283620004e9565b91506200056582620004fa565b604082019050919050565b600060208201905081810360008301526200058b8162000549565b9050919050565b7f4d696e696d756d20616d6f756e74206f66206574682073686f7564206772656160008201527f746572207468616e203000000000000000000000000000000000000000000000602082015250565b6000620005f0602a83620004e9565b9150620005fd8262000592565b604082019050919050565b600060208201905081810360008301526200062381620005e1565b9050919050565b7f4e487b7100000000000000000000000000000000000000000000000000000000600052602260045260246000fd5b600060028204905060018216806200067257607f821691505b602082108114156200068957620006886200062a565b5b50919050565b611db8806200069f6000396000f3fe6080604052600436106100c25760003560e01c806382fde0931161007f578063c0d5bce511610059578063c0d5bce514610264578063c774126514610280578063ed88c68e146102a9578063fbbf93a0146102b3576100c2565b806382fde093146101e35780639b2cb5d81461020e5780639ce1413b14610239576100c2565b80630a144391146100c757806312065fe014610104578063481c6a751461012f5780634cb6f4a51461015a57806355f150f11461017657806381d12c58146101a1575b600080fd5b3480156100d357600080fd5b506100ee60048036038101906100e991906112be565b6102e2565b6040516100fb9190611304565b60405180910390f35b34801561011057600080fd5b506101196102fa565b6040516101269190611304565b60405180910390f35b34801561013b57600080fd5b50610144610302565b604051610151919061132e565b60405180910390f35b610174600480360381019061016f9190611375565b610326565b005b34801561018257600080fd5b5061018b6107bf565b604051610198919061143b565b60405180910390f35b3480156101ad57600080fd5b506101c860048036038101906101c39190611375565b61084d565b6040516101da96959493929190611499565b60405180910390f35b3480156101ef57600080fd5b506101f86109d6565b6040516102059190611304565b60405180910390f35b34801561021a57600080fd5b506102236109dc565b6040516102309190611304565b60405180910390f35b34801561024557600080fd5b5061024e6109e2565b60405161025b919061143b565b60405180910390f35b61027e60048036038101906102799190611375565b610a70565b005b34801561028c57600080fd5b506102a760048036038101906102a2919061163d565b610db1565b005b6102b1610f1c565b005b3480156102bf57600080fd5b506102c861104f565b6040516102d99594939291906116dc565b60405180910390f35b60056020528060005260406000206000915090505481565b600047905090565b60008054906101000a900473ffffffffffffffffffffffffffffffffffffffff1681565b6000811015801561033b575060068054905081105b61037a576040517f08c379a0000000000000000000000000000000000000000000000000000000008152600401610371906117af565b60405180910390fd5b6000151560068281548110610392576103916117cf565b5b906000526020600020906005020160030160149054906101000a900460ff161515146103f3576040517f08c379a00000000000000000000000000000000000000000000000000000000081526004016103ea9061184a565b60405180910390fd5b60068181548110610407576104066117cf565b5b9060005260206000209060050201600201546006828154811061042d5761042c6117cf565b5b9060005260206000209060050201600401541061047f576040517f08c379a0000000000000000000000000000000000000000000000000000000008152600401610476906118dc565b60405180910390fd5b6000600560003373ffffffffffffffffffffffffffffffffffffffff1673ffffffffffffffffffffffffffffffffffffffff1681526020019081526020016000205411610501576040517f08c379a00000000000000000000000000000000000000000000000000000000081526004016104f890611994565b60405180910390fd5b60068181548110610515576105146117cf565b5b9060005260206000209060050201600401546006828154811061053b5761053a6117cf565b5b90600052602060002090600502016002015461055791906119e3565b600560003373ffffffffffffffffffffffffffffffffffffffff1673ffffffffffffffffffffffffffffffffffffffff1681526020019081526020016000205411156106dd576000600682815481106105b3576105b26117cf565b5b906000526020600020906005020160040154600560003373ffffffffffffffffffffffffffffffffffffffff1673ffffffffffffffffffffffffffffffffffffffff1681526020019081526020016000205461060f9190611a17565b905060068281548110610625576106246117cf565b5b9060005260206000209060050201600201548161064291906119e3565b905080600560003373ffffffffffffffffffffffffffffffffffffffff1673ffffffffffffffffffffffffffffffffffffffff168152602001908152602001600020819055506006828154811061069c5761069b6117cf565b5b906000526020600020906005020160020154600683815481106106c2576106c16117cf565b5b906000526020600020906005020160040181905550506107bc565b600560003373ffffffffffffffffffffffffffffffffffffffff1673ffffffffffffffffffffffffffffffffffffffff1681526020019081526020016000205460068281548110610731576107306117cf565b5b90600052602060002090600502016004015461074d9190611a17565b60068281548110610761576107606117cf565b5b9060005260206000209060050201600401819055506000600560003373ffffffffffffffffffffffffffffffffffffffff1673ffffffffffffffffffffffffffffffffffffffff168152602001908152602001600020819055505b50565b600280546107cc90611a9c565b80601f01602080910402602001604051908101604052809291908181526020018280546107f890611a9c565b80156108455780601f1061081a57610100808354040283529160200191610845565b820191906000526020600020905b81548152906001019060200180831161082857829003601f168201915b505050505081565b6006818154811061085d57600080fd5b906000526020600020906005020160009150905080600001805461088090611a9c565b80601f01602080910402602001604051908101604052809291908181526020018280546108ac90611a9c565b80156108f95780601f106108ce576101008083540402835291602001916108f9565b820191906000526020600020905b8154815290600101906020018083116108dc57829003601f168201915b50505050509080600101805461090e90611a9c565b80601f016020809104026020016040519081016040528092919081815260200182805461093a90611a9c565b80156109875780601f1061095c57610100808354040283529160200191610987565b820191906000526020600020905b81548152906001019060200180831161096a57829003601f168201915b5050505050908060020154908060030160009054906101000a900473ffffffffffffffffffffffffffffffffffffffff16908060030160149054906101000a900460ff16908060040154905086565b60045481565b60035481565b600180546109ef90611a9c565b80601f0160208091040260200160405190810160405280929190818152602001828054610a1b90611a9c565b8015610a685780601f10610a3d57610100808354040283529160200191610a68565b820191906000526020600020905b815481529060010190602001808311610a4b57829003601f168201915b505050505081565b60008054906101000a900473ffffffffffffffffffffffffffffffffffffffff1673ffffffffffffffffffffffffffffffffffffffff163373ffffffffffffffffffffffffffffffffffffffff1614610afe576040517f08c379a0000000000000000000000000000000000000000000000000000000008152600401610af590611b40565b60405180910390fd5b60008110158015610b13575060068054905081105b610b52576040517f08c379a0000000000000000000000000000000000000000000000000000000008152600401610b49906117af565b60405180910390fd5b6000151560068281548110610b6a57610b696117cf565b5b906000526020600020906005020160030160149054906101000a900460ff16151514610bcb576040517f08c379a0000000000000000000000000000000000000000000000000000000008152600401610bc290611bd2565b60405180910390fd5b4760068281548110610be057610bdf6117cf565b5b9060005260206000209060050201600201541115610c33576040517f08c379a0000000000000000000000000000000000000000000000000000000008152600401610c2a90611c3e565b60405180910390fd5b60068181548110610c4757610c466117cf565b5b90600052602060002090600502016002015460068281548110610c6d57610c6c6117cf565b5b90600052602060002090600502016004015414610cbf576040517f08c379a0000000000000000000000000000000000000000000000000000000008152600401610cb690611cd0565b60405180910390fd5b60068181548110610cd357610cd26117cf565b5b906000526020600020906005020160030160009054906101000a900473ffffffffffffffffffffffffffffffffffffffff1673ffffffffffffffffffffffffffffffffffffffff166108fc60068381548110610d3257610d316117cf565b5b9060005260206000209060050201600201549081150290604051600060405180830381858888f19350505050158015610d6f573d6000803e3d6000fd5b50600160068281548110610d8657610d856117cf565b5b906000526020600020906005020160030160146101000a81548160ff02191690831515021790555050565b60008054906101000a900473ffffffffffffffffffffffffffffffffffffffff1673ffffffffffffffffffffffffffffffffffffffff163373ffffffffffffffffffffffffffffffffffffffff1614610e3f576040517f08c379a0000000000000000000000000000000000000000000000000000000008152600401610e3690611b40565b60405180910390fd5b47821115610e4c57600080fd5b60006006600181600181540180825580915050039060005260206000209060050201905084816000019080519060200190610e889291906111a9565b5083816001019080519060200190610ea19291906111a9565b50828160020181905550818160030160006101000a81548173ffffffffffffffffffffffffffffffffffffffff021916908373ffffffffffffffffffffffffffffffffffffffff1602179055506000816004018190555060008160030160146101000a81548160ff0219169083151502179055505050505050565b600354341015610f61576040517f08c379a0000000000000000000000000000000000000000000000000000000008152600401610f5890611d62565b60405180910390fd5b6000600560003373ffffffffffffffffffffffffffffffffffffffff1673ffffffffffffffffffffffffffffffffffffffff168152602001908152602001600020541415610fbf576001600454610fb89190611a17565b6004819055505b34600560003373ffffffffffffffffffffffffffffffffffffffff1673ffffffffffffffffffffffffffffffffffffffff1681526020019081526020016000205461100a9190611a17565b600560003373ffffffffffffffffffffffffffffffffffffffff1673ffffffffffffffffffffffffffffffffffffffff16815260200190815260200160002081905550565b60608060008060006001600260008054906101000a900473ffffffffffffffffffffffffffffffffffffffff164760035484805461108c90611a9c565b80601f01602080910402602001604051908101604052809291908181526020018280546110b890611a9c565b80156111055780601f106110da57610100808354040283529160200191611105565b820191906000526020600020905b8154815290600101906020018083116110e857829003601f168201915b5050505050945083805461111890611a9c565b80601f016020809104026020016040519081016040528092919081815260200182805461114490611a9c565b80156111915780601f1061116657610100808354040283529160200191611191565b820191906000526020600020905b81548152906001019060200180831161117457829003601f168201915b50505050509350945094509450945094509091929394565b8280546111b590611a9c565b90600052602060002090601f0160209004810192826111d7576000855561121e565b82601f106111f057805160ff191683800117855561121e565b8280016001018555821561121e579182015b8281111561121d578251825591602001919060010190611202565b5b50905061122b919061122f565b5090565b5b80821115611248576000816000905550600101611230565b5090565b6000604051905090565b600080fd5b600080fd5b600073ffffffffffffffffffffffffffffffffffffffff82169050919050565b600061128b82611260565b9050919050565b61129b81611280565b81146112a657600080fd5b50565b6000813590506112b881611292565b92915050565b6000602082840312156112d4576112d3611256565b5b60006112e2848285016112a9565b91505092915050565b6000819050919050565b6112fe816112eb565b82525050565b600060208201905061131960008301846112f5565b92915050565b61132881611280565b82525050565b6000602082019050611343600083018461131f565b92915050565b611352816112eb565b811461135d57600080fd5b50565b60008135905061136f81611349565b92915050565b60006020828403121561138b5761138a611256565b5b600061139984828501611360565b91505092915050565b600081519050919050565b600082825260208201905092915050565b60005b838110156113dc5780820151818401526020810190506113c1565b838111156113eb576000848401525b50505050565b6000601f19601f8301169050919050565b600061140d826113a2565b61141781856113ad565b93506114278185602086016113be565b611430816113f1565b840191505092915050565b600060208201905081810360008301526114558184611402565b905092915050565b600061146882611260565b9050919050565b6114788161145d565b82525050565b60008115159050919050565b6114938161147e565b82525050565b600060c08201905081810360008301526114b38189611402565b905081810360208301526114c78188611402565b90506114d660408301876112f5565b6114e3606083018661146f565b6114f0608083018561148a565b6114fd60a08301846112f5565b979650505050505050565b600080fd5b600080fd5b7f4e487b7100000000000000000000000000000000000000000000000000000000600052604160045260246000fd5b61154a826113f1565b810181811067ffffffffffffffff8211171561156957611568611512565b5b80604052505050565b600061157c61124c565b90506115888282611541565b919050565b600067ffffffffffffffff8211156115a8576115a7611512565b5b6115b1826113f1565b9050602081019050919050565b82818337600083830152505050565b60006115e06115db8461158d565b611572565b9050828152602081018484840111156115fc576115fb61150d565b5b6116078482856115be565b509392505050565b600082601f83011261162457611623611508565b5b81356116348482602086016115cd565b91505092915050565b6000806000806080858703121561165757611656611256565b5b600085013567ffffffffffffffff8111156116755761167461125b565b5b6116818782880161160f565b945050602085013567ffffffffffffffff8111156116a2576116a161125b565b5b6116ae8782880161160f565b93505060406116bf87828801611360565b92505060606116d0878288016112a9565b91505092959194509250565b600060a08201905081810360008301526116f68188611402565b9050818103602083015261170a8187611402565b9050611719604083018661131f565b61172660608301856112f5565b61173360808301846112f5565b9695505050505050565b7f696e646578206f7574206f6620626f756e6420666f722072657175657374206d60008201527f617070696e670000000000000000000000000000000000000000000000000000602082015250565b60006117996026836113ad565b91506117a48261173d565b604082019050919050565b600060208201905081810360008301526117c88161178c565b9050919050565b7f4e487b7100000000000000000000000000000000000000000000000000000000600052603260045260246000fd5b7f526571756573742046696e616c6973656420616c726561647900000000000000600082015250565b60006118346019836113ad565b915061183f826117fe565b602082019050919050565b6000602082019050818103600083015261186381611827565b9050919050565b7f526571756573742068617320676174686572656420726571756573746564206160008201527f6d6f756e74000000000000000000000000000000000000000000000000000000602082015250565b60006118c66025836113ad565b91506118d18261186a565b604082019050919050565b600060208201905081810360008301526118f5816118b9565b9050919050565b7f596f7520646f6e74206861766520656e6f75676820766f74696e6720706f776560008201527f722e4f627461696e20766f74696e6720706f7765722062792072616973696e6760208201527f2066756e64000000000000000000000000000000000000000000000000000000604082015250565b600061197e6045836113ad565b9150611989826118fc565b606082019050919050565b600060208201905081810360008301526119ad81611971565b9050919050565b7f4e487b7100000000000000000000000000000000000000000000000000000000600052601160045260246000fd5b60006119ee826112eb565b91506119f9836112eb565b925082821015611a0c57611a0b6119b4565b5b828203905092915050565b6000611a22826112eb565b9150611a2d836112eb565b9250827fffffffffffffffffffffffffffffffffffffffffffffffffffffffffffffffff03821115611a6257611a616119b4565b5b828201905092915050565b7f4e487b7100000000000000000000000000000000000000000000000000000000600052602260045260246000fd5b60006002820490506001821680611ab457607f821691505b60208210811415611ac857611ac7611a6d565b5b50919050565b7f796f7520646f6e74206861766520617574686f7269747920746f20637265617460008201527f6520726571756573747300000000000000000000000000000000000000000000602082015250565b6000611b2a602a836113ad565b9150611b3582611ace565b604082019050919050565b60006020820190508181036000830152611b5981611b1d565b9050919050565b7f526571756573742046696e616c697365642063616e6e6f7420646f20616e792060008201527f7461726e73616374696f6e000000000000000000000000000000000000000000602082015250565b6000611bbc602b836113ad565b9150611bc782611b60565b604082019050919050565b60006020820190508181036000830152611beb81611baf565b9050919050565b7f496e737566757563656e742062616c616e636520696e2066756e640000000000600082015250565b6000611c28601b836113ad565b9150611c3382611bf2565b602082019050919050565b60006020820190508181036000830152611c5781611c1b565b9050919050565b7f4e6f74206d616a6f72697479206f7220746172676574206e6f7420616368696560008201527f7665640000000000000000000000000000000000000000000000000000000000602082015250565b6000611cba6023836113ad565b9150611cc582611c5e565b604082019050919050565b60006020820190508181036000830152611ce981611cad565b9050919050565b7f446f6e61746174696f6e206c657373207468616e206d696e416d6f756e74206960008201527f73206e6f74206163636570746564000000000000000000000000000000000000602082015250565b6000611d4c602e836113ad565b9150611d5782611cf0565b604082019050919050565b60006020820190508181036000830152611d7b81611d3f565b905091905056fea264697066735822122063eaf0c837215013bf6afadaa1d0e96650923e9f943b9752596bd9d669affc8364736f6c634300080b0033",
  "immutableReferences": {},
  "source": "//\r\npragma solidity >=0.4.22 <0.9.0;\r\ncontract Fund{\r\n    address  public manager;\r\n    string public fundName;\r\n    string public desc;\r\n    uint public minAmount;\r\n    uint public approversCount=0;\r\n    mapping(address=>uint) public approvers;\r\n\r\n    struct request{\r\n        string requestName;\r\n        string requestDesc;\r\n        uint requestedAmount;\r\n        address payable receiverAddress;\r\n        bool isCompleted;\r\n        uint balance;\r\n    }\r\n\r\n    request[] public requests;\r\n\r\n    constructor(address _manager,string  memory _fundName,string memory _desc,uint  _minAmount)\r\n    {\r\n        require(bytes(_fundName).length>2 ,\"Fund Name should have proper title\");\r\n        require(_minAmount>0 ,\"Minimum amount of eth shoud greater than 0\");\r\n        manager=_manager;\r\n        fundName=_fundName;\r\n        desc=_desc;\r\n        minAmount=_minAmount;\r\n\r\n    }\r\n    function donate() public payable\r\n    {   require(msg.value>=minAmount,\"Donatation less than minAmount is not accepted\");\r\n        if(approvers[msg.sender]==0)\r\n        approversCount=approversCount+1;\r\n        approvers[msg.sender]=approvers[msg.sender]+msg.value;\r\n    }\r\n    function getBalance() public view returns(uint)\r\n    {\r\n        return address(this).balance;\r\n    }\r\n    modifier isManager{\r\n        require(msg.sender==manager,\"you dont have authority to create requests\");\r\n        _;\r\n    }\r\n    function createRequest(string memory _requestName,string memory _requestDesc,uint _requestedAmount,\r\n    address _receiverAddress\r\n    ) public isManager {\r\n        require(_requestedAmount<=address(this).balance);\r\n        request storage newRequest=requests.push();\r\n        newRequest.requestName=_requestName;\r\n        newRequest.requestDesc=_requestDesc;\r\n        newRequest.requestedAmount=_requestedAmount;\r\n        newRequest.receiverAddress=payable(_receiverAddress);\r\n        newRequest.balance=0;\r\n        newRequest.isCompleted=false;\r\n    }\r\n\r\n    function voteRequest(uint idx) public payable\r\n    {\r\n        require(idx>=0 && idx<requests.length,\"index out of bound for request mapping\");\r\n        require(requests[idx].isCompleted==false,\"Request Finalised already\");\r\n        require(requests[idx].balance<requests[idx].requestedAmount,\"Request has gathered requested amount\");\r\n        require(approvers[msg.sender]>0,\"You dont have enough voting power.Obtain voting power by raising fund\");\r\n\r\n        if(approvers[msg.sender]>requests[idx].requestedAmount-requests[idx].balance)\r\n        {\r\n            uint tmp=approvers[msg.sender]+requests[idx].balance;\r\n            tmp=tmp-requests[idx].requestedAmount;\r\n            approvers[msg.sender]=tmp;\r\n            requests[idx].balance=requests[idx].requestedAmount;\r\n\r\n        }\r\n        else\r\n        {\r\n            requests[idx].balance=requests[idx].balance+approvers[msg.sender];\r\n            approvers[msg.sender]=0;\r\n        }\r\n\r\n    }\r\n    function finaliseAndSend(uint idx) public isManager payable{\r\n        require(idx>=0 && idx<requests.length,\"index out of bound for request mapping\");\r\n        require(requests[idx].isCompleted==false,\"Request Finalised cannot do any tarnsaction\");\r\n        require(requests[idx].requestedAmount<=address(this).balance,\"Insufuucent balance in fund\");\r\n        require(requests[idx].balance==requests[idx].requestedAmount,\"Not majority or target not achieved\");\r\n        requests[idx].receiverAddress.transfer(requests[idx].requestedAmount);\r\n        requests[idx].isCompleted=true;\r\n    }\r\n\r\n    function getDetails() public view returns(string memory,string memory,address ,uint,uint){\r\n        return(fundName,desc,manager,address(this).balance,minAmount);\r\n    }\r\n\r\n}",
  "sourcePath": "C:\\Users\\Ritik Kumar\\Desktop\\charity-fund\\contracts\\Fund.sol",
  "compiler": {
    "name": "solc",
    "version": "0.8.11+commit.d7f03943.Emscripten.clang"
  },
  "schemaVersion": "3.4.4",
  "updatedAt": "2022-04-03T14:24:27.218Z",
  "devdoc": {
    "kind": "dev",
    "methods": {},
    "version": 1
  },
  "userdoc": {
    "kind": "user",
    "methods": {},
    "version": 1
  }
}