{
  "contractName": "Fund",
  "abi": [
    {
      "inputs": [
        {
          "internalType": "address",
          "name": "_manager",
          "type": "address"
        },
        {
          "internalType": "string",
          "name": "_fundName",
          "type": "string"
        },
        {
          "internalType": "string",
          "name": "_desc",
          "type": "string"
        },
        {
          "internalType": "uint256",
          "name": "_minAmount",
          "type": "uint256"
        }
      ],
      "stateMutability": "nonpayable",
      "type": "constructor"
    },
    {
      "inputs": [
        {
          "internalType": "address",
          "name": "",
          "type": "address"
        }
      ],
      "name": "approvers",
      "outputs": [
        {
          "internalType": "uint256",
          "name": "",
          "type": "uint256"
        }
      ],
      "stateMutability": "view",
      "type": "function"
    },
    {
      "inputs": [],
      "name": "approversCount",
      "outputs": [
        {
          "internalType": "uint256",
          "name": "",
          "type": "uint256"
        }
      ],
      "stateMutability": "view",
      "type": "function"
    },
    {
      "inputs": [],
      "name": "desc",
      "outputs": [
        {
          "internalType": "string",
          "name": "",
          "type": "string"
        }
      ],
      "stateMutability": "view",
      "type": "function"
    },
    {
      "inputs": [],
      "name": "fundName",
      "outputs": [
        {
          "internalType": "string",
          "name": "",
          "type": "string"
        }
      ],
      "stateMutability": "view",
      "type": "function"
    },
    {
      "inputs": [],
      "name": "manager",
      "outputs": [
        {
          "internalType": "address",
          "name": "",
          "type": "address"
        }
      ],
      "stateMutability": "view",
      "type": "function"
    },
    {
      "inputs": [],
      "name": "minAmount",
      "outputs": [
        {
          "internalType": "uint256",
          "name": "",
          "type": "uint256"
        }
      ],
      "stateMutability": "view",
      "type": "function"
    },
    {
      "inputs": [
        {
          "internalType": "uint256",
          "name": "",
          "type": "uint256"
        }
      ],
      "name": "requests",
      "outputs": [
        {
          "internalType": "string",
          "name": "requestName",
          "type": "string"
        },
        {
          "internalType": "string",
          "name": "requestDesc",
          "type": "string"
        },
        {
          "internalType": "uint256",
          "name": "requestedAmount",
          "type": "uint256"
        },
        {
          "internalType": "address payable",
          "name": "receiverAddress",
          "type": "address"
        },
        {
          "internalType": "bool",
          "name": "isCompleted",
          "type": "bool"
        },
        {
          "internalType": "uint256",
          "name": "balance",
          "type": "uint256"
        }
      ],
      "stateMutability": "view",
      "type": "function"
    },
    {
      "inputs": [
        {
          "internalType": "address",
          "name": "",
          "type": "address"
        }
      ],
      "name": "total",
      "outputs": [
        {
          "internalType": "uint256",
          "name": "",
          "type": "uint256"
        }
      ],
      "stateMutability": "view",
      "type": "function"
    },
    {
      "inputs": [],
      "name": "donate",
      "outputs": [],
      "stateMutability": "payable",
      "type": "function"
    },
    {
      "inputs": [],
      "name": "getBalance",
      "outputs": [
        {
          "internalType": "uint256",
          "name": "",
          "type": "uint256"
        }
      ],
      "stateMutability": "view",
      "type": "function"
    },
    {
      "inputs": [
        {
          "internalType": "string",
          "name": "_requestName",
          "type": "string"
        },
        {
          "internalType": "string",
          "name": "_requestDesc",
          "type": "string"
        },
        {
          "internalType": "uint256",
          "name": "_requestedAmount",
          "type": "uint256"
        },
        {
          "internalType": "address",
          "name": "_receiverAddress",
          "type": "address"
        }
      ],
      "name": "createRequest",
      "outputs": [],
      "stateMutability": "payable",
      "type": "function"
    },
    {
      "inputs": [
        {
          "internalType": "uint256",
          "name": "idx",
          "type": "uint256"
        }
      ],
      "name": "voteRequest",
      "outputs": [],
      "stateMutability": "payable",
      "type": "function"
    },
    {
      "inputs": [
        {
          "internalType": "uint256",
          "name": "idx",
          "type": "uint256"
        }
      ],
      "name": "finaliseAndSend",
      "outputs": [],
      "stateMutability": "payable",
      "type": "function"
    },
    {
      "inputs": [],
      "name": "getDetails",
      "outputs": [
        {
          "internalType": "string",
          "name": "",
          "type": "string"
        },
        {
          "internalType": "string",
          "name": "",
          "type": "string"
        },
        {
          "internalType": "address",
          "name": "",
          "type": "address"
        },
        {
          "internalType": "uint256",
          "name": "",
          "type": "uint256"
        },
        {
          "internalType": "uint256",
          "name": "",
          "type": "uint256"
        }
      ],
      "stateMutability": "view",
      "type": "function"
    },
    {
      "inputs": [],
      "name": "getRequestsSize",
      "outputs": [
        {
          "internalType": "uint256",
          "name": "",
          "type": "uint256"
        }
      ],
      "stateMutability": "view",
      "type": "function"
    },
    {
      "inputs": [
        {
          "internalType": "uint256",
          "name": "idx",
          "type": "uint256"
        }
      ],
      "name": "getRequests",
      "outputs": [
        {
          "internalType": "string",
          "name": "",
          "type": "string"
        },
        {
          "internalType": "string",
          "name": "",
          "type": "string"
        },
        {
          "internalType": "uint256",
          "name": "",
          "type": "uint256"
        },
        {
          "internalType": "address",
          "name": "",
          "type": "address"
        },
        {
          "internalType": "bool",
          "name": "",
          "type": "bool"
        },
        {
          "internalType": "uint256",
          "name": "",
          "type": "uint256"
        }
      ],
      "stateMutability": "view",
      "type": "function"
    }
  ],
  "bytecode": "0x608060405260006004553480156200001657600080fd5b50604051620028eb380380620028eb83398181016040528101906200003c919062000439565b600283511162000083576040517f08c379a00000000000000000000000000000000000000000000000000000000081526004016200007a9062000570565b60405180910390fd5b60008111620000c9576040517f08c379a0000000000000000000000000000000000000000000000000000000008152600401620000c09062000608565b60405180910390fd5b836000806101000a81548173ffffffffffffffffffffffffffffffffffffffff021916908373ffffffffffffffffffffffffffffffffffffffff1602179055508260019080519060200190620001219291906200014c565b5081600290805190602001906200013a9291906200014c565b5080600381905550505050506200068f565b8280546200015a9062000659565b90600052602060002090601f0160209004810192826200017e5760008555620001ca565b82601f106200019957805160ff1916838001178555620001ca565b82800160010185558215620001ca579182015b82811115620001c9578251825591602001919060010190620001ac565b5b509050620001d99190620001dd565b5090565b5b80821115620001f8576000816000905550600101620001de565b5090565b6000604051905090565b600080fd5b600080fd5b600073ffffffffffffffffffffffffffffffffffffffff82169050919050565b60006200023d8262000210565b9050919050565b6200024f8162000230565b81146200025b57600080fd5b50565b6000815190506200026f8162000244565b92915050565b600080fd5b600080fd5b6000601f19601f8301169050919050565b7f4e487b7100000000000000000000000000000000000000000000000000000000600052604160045260246000fd5b620002ca826200027f565b810181811067ffffffffffffffff82111715620002ec57620002eb62000290565b5b80604052505050565b600062000301620001fc565b90506200030f8282620002bf565b919050565b600067ffffffffffffffff82111562000332576200033162000290565b5b6200033d826200027f565b9050602081019050919050565b60005b838110156200036a5780820151818401526020810190506200034d565b838111156200037a576000848401525b50505050565b600062000397620003918462000314565b620002f5565b905082815260208101848484011115620003b657620003b56200027a565b5b620003c38482856200034a565b509392505050565b600082601f830112620003e357620003e262000275565b5b8151620003f584826020860162000380565b91505092915050565b6000819050919050565b6200041381620003fe565b81146200041f57600080fd5b50565b600081519050620004338162000408565b92915050565b6000806000806080858703121562000456576200045562000206565b5b600062000466878288016200025e565b945050602085015167ffffffffffffffff8111156200048a57620004896200020b565b5b6200049887828801620003cb565b935050604085015167ffffffffffffffff811115620004bc57620004bb6200020b565b5b620004ca87828801620003cb565b9250506060620004dd8782880162000422565b91505092959194509250565b600082825260208201905092915050565b7f46756e64204e616d652073686f756c6420686176652070726f7065722074697460008201527f6c65000000000000000000000000000000000000000000000000000000000000602082015250565b600062000558602283620004e9565b91506200056582620004fa565b604082019050919050565b600060208201905081810360008301526200058b8162000549565b9050919050565b7f4d696e696d756d20616d6f756e74206f66206574682073686f7564206772656160008201527f746572207468616e203000000000000000000000000000000000000000000000602082015250565b6000620005f0602a83620004e9565b9150620005fd8262000592565b604082019050919050565b600060208201905081810360008301526200062381620005e1565b9050919050565b7f4e487b7100000000000000000000000000000000000000000000000000000000600052602260045260246000fd5b600060028204905060018216806200067257607f821691505b602082108114156200068957620006886200062a565b5b50919050565b61224c806200069f6000396000f3fe6080604052600436106100f35760003560e01c80639ce1413b1161008a578063d2514e8411610059578063d2514e84146102f8578063d5e7882914610335578063ed88c68e14610377578063fbbf93a014610381576100f3565b80639ce1413b1461026a578063be46d09814610295578063c0d5bce5146102c0578063c7741265146102dc576100f3565b806355f150f1116100c657806355f150f1146101a757806381d12c58146101d257806382fde093146102145780639b2cb5d81461023f576100f3565b80630a144391146100f857806312065fe014610135578063481c6a75146101605780634cb6f4a51461018b575b600080fd5b34801561010457600080fd5b5061011f600480360381019061011a91906116e3565b6103b0565b60405161012c9190611729565b60405180910390f35b34801561014157600080fd5b5061014a6103c8565b6040516101579190611729565b60405180910390f35b34801561016c57600080fd5b506101756103d0565b6040516101829190611753565b60405180910390f35b6101a560048036038101906101a0919061179a565b6103f4565b005b3480156101b357600080fd5b506101bc61088d565b6040516101c99190611860565b60405180910390f35b3480156101de57600080fd5b506101f960048036038101906101f4919061179a565b61091b565b60405161020b969594939291906118be565b60405180910390f35b34801561022057600080fd5b50610229610aa4565b6040516102369190611729565b60405180910390f35b34801561024b57600080fd5b50610254610aaa565b6040516102619190611729565b60405180910390f35b34801561027657600080fd5b5061027f610ab0565b60405161028c9190611860565b60405180910390f35b3480156102a157600080fd5b506102aa610b3e565b6040516102b79190611729565b60405180910390f35b6102da60048036038101906102d5919061179a565b610b4b565b005b6102f660048036038101906102f19190611a62565b610e8c565b005b34801561030457600080fd5b5061031f600480360381019061031a91906116e3565b611056565b60405161032c9190611729565b60405180910390f35b34801561034157600080fd5b5061035c6004803603810190610357919061179a565b61106e565b60405161036e96959493929190611b01565b60405180910390f35b61037f6112b3565b005b34801561038d57600080fd5b50610396611474565b6040516103a7959493929190611b70565b60405180910390f35b60056020528060005260406000206000915090505481565b600047905090565b60008054906101000a900473ffffffffffffffffffffffffffffffffffffffff1681565b60008110158015610409575060078054905081105b610448576040517f08c379a000000000000000000000000000000000000000000000000000000000815260040161043f90611c43565b60405180910390fd5b60001515600782815481106104605761045f611c63565b5b906000526020600020906005020160030160149054906101000a900460ff161515146104c1576040517f08c379a00000000000000000000000000000000000000000000000000000000081526004016104b890611cde565b60405180910390fd5b600781815481106104d5576104d4611c63565b5b906000526020600020906005020160020154600782815481106104fb576104fa611c63565b5b9060005260206000209060050201600401541061054d576040517f08c379a000000000000000000000000000000000000000000000000000000000815260040161054490611d70565b60405180910390fd5b6000600560003373ffffffffffffffffffffffffffffffffffffffff1673ffffffffffffffffffffffffffffffffffffffff16815260200190815260200160002054116105cf576040517f08c379a00000000000000000000000000000000000000000000000000000000081526004016105c690611e28565b60405180910390fd5b600781815481106105e3576105e2611c63565b5b9060005260206000209060050201600401546007828154811061060957610608611c63565b5b9060005260206000209060050201600201546106259190611e77565b600560003373ffffffffffffffffffffffffffffffffffffffff1673ffffffffffffffffffffffffffffffffffffffff1681526020019081526020016000205411156107ab5760006007828154811061068157610680611c63565b5b906000526020600020906005020160040154600560003373ffffffffffffffffffffffffffffffffffffffff1673ffffffffffffffffffffffffffffffffffffffff168152602001908152602001600020546106dd9190611eab565b9050600782815481106106f3576106f2611c63565b5b906000526020600020906005020160020154816107109190611e77565b905080600560003373ffffffffffffffffffffffffffffffffffffffff1673ffffffffffffffffffffffffffffffffffffffff168152602001908152602001600020819055506007828154811061076a57610769611c63565b5b906000526020600020906005020160020154600783815481106107905761078f611c63565b5b9060005260206000209060050201600401819055505061088a565b600560003373ffffffffffffffffffffffffffffffffffffffff1673ffffffffffffffffffffffffffffffffffffffff16815260200190815260200160002054600782815481106107ff576107fe611c63565b5b90600052602060002090600502016004015461081b9190611eab565b6007828154811061082f5761082e611c63565b5b9060005260206000209060050201600401819055506000600560003373ffffffffffffffffffffffffffffffffffffffff1673ffffffffffffffffffffffffffffffffffffffff168152602001908152602001600020819055505b50565b6002805461089a90611f30565b80601f01602080910402602001604051908101604052809291908181526020018280546108c690611f30565b80156109135780601f106108e857610100808354040283529160200191610913565b820191906000526020600020905b8154815290600101906020018083116108f657829003601f168201915b505050505081565b6007818154811061092b57600080fd5b906000526020600020906005020160009150905080600001805461094e90611f30565b80601f016020809104026020016040519081016040528092919081815260200182805461097a90611f30565b80156109c75780601f1061099c576101008083540402835291602001916109c7565b820191906000526020600020905b8154815290600101906020018083116109aa57829003601f168201915b5050505050908060010180546109dc90611f30565b80601f0160208091040260200160405190810160405280929190818152602001828054610a0890611f30565b8015610a555780601f10610a2a57610100808354040283529160200191610a55565b820191906000526020600020905b815481529060010190602001808311610a3857829003601f168201915b5050505050908060020154908060030160009054906101000a900473ffffffffffffffffffffffffffffffffffffffff16908060030160149054906101000a900460ff16908060040154905086565b60045481565b60035481565b60018054610abd90611f30565b80601f0160208091040260200160405190810160405280929190818152602001828054610ae990611f30565b8015610b365780601f10610b0b57610100808354040283529160200191610b36565b820191906000526020600020905b815481529060010190602001808311610b1957829003601f168201915b505050505081565b6000600780549050905090565b60008054906101000a900473ffffffffffffffffffffffffffffffffffffffff1673ffffffffffffffffffffffffffffffffffffffff163373ffffffffffffffffffffffffffffffffffffffff1614610bd9576040517f08c379a0000000000000000000000000000000000000000000000000000000008152600401610bd090611fd4565b60405180910390fd5b60008110158015610bee575060078054905081105b610c2d576040517f08c379a0000000000000000000000000000000000000000000000000000000008152600401610c2490611c43565b60405180910390fd5b6000151560078281548110610c4557610c44611c63565b5b906000526020600020906005020160030160149054906101000a900460ff16151514610ca6576040517f08c379a0000000000000000000000000000000000000000000000000000000008152600401610c9d90612066565b60405180910390fd5b4760078281548110610cbb57610cba611c63565b5b9060005260206000209060050201600201541115610d0e576040517f08c379a0000000000000000000000000000000000000000000000000000000008152600401610d05906120d2565b60405180910390fd5b60078181548110610d2257610d21611c63565b5b90600052602060002090600502016002015460078281548110610d4857610d47611c63565b5b90600052602060002090600502016004015414610d9a576040517f08c379a0000000000000000000000000000000000000000000000000000000008152600401610d9190612164565b60405180910390fd5b60078181548110610dae57610dad611c63565b5b906000526020600020906005020160030160009054906101000a900473ffffffffffffffffffffffffffffffffffffffff1673ffffffffffffffffffffffffffffffffffffffff166108fc60078381548110610e0d57610e0c611c63565b5b9060005260206000209060050201600201549081150290604051600060405180830381858888f19350505050158015610e4a573d6000803e3d6000fd5b50600160078281548110610e6157610e60611c63565b5b906000526020600020906005020160030160146101000a81548160ff02191690831515021790555050565b60008054906101000a900473ffffffffffffffffffffffffffffffffffffffff1673ffffffffffffffffffffffffffffffffffffffff163373ffffffffffffffffffffffffffffffffffffffff1614610f1a576040517f08c379a0000000000000000000000000000000000000000000000000000000008152600401610f1190611fd4565b60405180910390fd5b47821115610f2757600080fd5b60076040518060c001604052808681526020018581526020018481526020018373ffffffffffffffffffffffffffffffffffffffff168152602001600015158152602001600081525090806001815401808255809150506001900390600052602060002090600502016000909190919091506000820151816000019080519060200190610fb59291906115ce565b506020820151816001019080519060200190610fd29291906115ce565b506040820151816002015560608201518160030160006101000a81548173ffffffffffffffffffffffffffffffffffffffff021916908373ffffffffffffffffffffffffffffffffffffffff16021790555060808201518160030160146101000a81548160ff02191690831515021790555060a08201518160040155505050505050565b60066020528060005260406000206000915090505481565b6060806000806000806007878154811061108b5761108a611c63565b5b9060005260206000209060050201600001600788815481106110b0576110af611c63565b5b9060005260206000209060050201600101600789815481106110d5576110d4611c63565b5b90600052602060002090600502016002015460078a815481106110fb576110fa611c63565b5b906000526020600020906005020160030160009054906101000a900473ffffffffffffffffffffffffffffffffffffffff1660078b8154811061114157611140611c63565b5b906000526020600020906005020160030160149054906101000a900460ff1660078c8154811061117457611173611c63565b5b90600052602060002090600502016004015485805461119290611f30565b80601f01602080910402602001604051908101604052809291908181526020018280546111be90611f30565b801561120b5780601f106111e05761010080835404028352916020019161120b565b820191906000526020600020905b8154815290600101906020018083116111ee57829003601f168201915b5050505050955084805461121e90611f30565b80601f016020809104026020016040519081016040528092919081815260200182805461124a90611f30565b80156112975780601f1061126c57610100808354040283529160200191611297565b820191906000526020600020905b81548152906001019060200180831161127a57829003601f168201915b5050505050945095509550955095509550955091939550919395565b6003543410156112f8576040517f08c379a00000000000000000000000000000000000000000000000000000000081526004016112ef906121f6565b60405180910390fd5b6000600560003373ffffffffffffffffffffffffffffffffffffffff1673ffffffffffffffffffffffffffffffffffffffff16815260200190815260200160002054141561135657600160045461134f9190611eab565b6004819055505b34600560003373ffffffffffffffffffffffffffffffffffffffff1673ffffffffffffffffffffffffffffffffffffffff168152602001908152602001600020546113a19190611eab565b600560003373ffffffffffffffffffffffffffffffffffffffff1673ffffffffffffffffffffffffffffffffffffffff1681526020019081526020016000208190555034600660003373ffffffffffffffffffffffffffffffffffffffff1673ffffffffffffffffffffffffffffffffffffffff1681526020019081526020016000205461142f9190611eab565b600660003373ffffffffffffffffffffffffffffffffffffffff1673ffffffffffffffffffffffffffffffffffffffff16815260200190815260200160002081905550565b60608060008060006001600260008054906101000a900473ffffffffffffffffffffffffffffffffffffffff16476003548480546114b190611f30565b80601f01602080910402602001604051908101604052809291908181526020018280546114dd90611f30565b801561152a5780601f106114ff5761010080835404028352916020019161152a565b820191906000526020600020905b81548152906001019060200180831161150d57829003601f168201915b5050505050945083805461153d90611f30565b80601f016020809104026020016040519081016040528092919081815260200182805461156990611f30565b80156115b65780601f1061158b576101008083540402835291602001916115b6565b820191906000526020600020905b81548152906001019060200180831161159957829003601f168201915b50505050509350945094509450945094509091929394565b8280546115da90611f30565b90600052602060002090601f0160209004810192826115fc5760008555611643565b82601f1061161557805160ff1916838001178555611643565b82800160010185558215611643579182015b82811115611642578251825591602001919060010190611627565b5b5090506116509190611654565b5090565b5b8082111561166d576000816000905550600101611655565b5090565b6000604051905090565b600080fd5b600080fd5b600073ffffffffffffffffffffffffffffffffffffffff82169050919050565b60006116b082611685565b9050919050565b6116c0816116a5565b81146116cb57600080fd5b50565b6000813590506116dd816116b7565b92915050565b6000602082840312156116f9576116f861167b565b5b6000611707848285016116ce565b91505092915050565b6000819050919050565b61172381611710565b82525050565b600060208201905061173e600083018461171a565b92915050565b61174d816116a5565b82525050565b60006020820190506117686000830184611744565b92915050565b61177781611710565b811461178257600080fd5b50565b6000813590506117948161176e565b92915050565b6000602082840312156117b0576117af61167b565b5b60006117be84828501611785565b91505092915050565b600081519050919050565b600082825260208201905092915050565b60005b838110156118015780820151818401526020810190506117e6565b83811115611810576000848401525b50505050565b6000601f19601f8301169050919050565b6000611832826117c7565b61183c81856117d2565b935061184c8185602086016117e3565b61185581611816565b840191505092915050565b6000602082019050818103600083015261187a8184611827565b905092915050565b600061188d82611685565b9050919050565b61189d81611882565b82525050565b60008115159050919050565b6118b8816118a3565b82525050565b600060c08201905081810360008301526118d88189611827565b905081810360208301526118ec8188611827565b90506118fb604083018761171a565b6119086060830186611894565b61191560808301856118af565b61192260a083018461171a565b979650505050505050565b600080fd5b600080fd5b7f4e487b7100000000000000000000000000000000000000000000000000000000600052604160045260246000fd5b61196f82611816565b810181811067ffffffffffffffff8211171561198e5761198d611937565b5b80604052505050565b60006119a1611671565b90506119ad8282611966565b919050565b600067ffffffffffffffff8211156119cd576119cc611937565b5b6119d682611816565b9050602081019050919050565b82818337600083830152505050565b6000611a05611a00846119b2565b611997565b905082815260208101848484011115611a2157611a20611932565b5b611a2c8482856119e3565b509392505050565b600082601f830112611a4957611a4861192d565b5b8135611a598482602086016119f2565b91505092915050565b60008060008060808587031215611a7c57611a7b61167b565b5b600085013567ffffffffffffffff811115611a9a57611a99611680565b5b611aa687828801611a34565b945050602085013567ffffffffffffffff811115611ac757611ac6611680565b5b611ad387828801611a34565b9350506040611ae487828801611785565b9250506060611af5878288016116ce565b91505092959194509250565b600060c0820190508181036000830152611b1b8189611827565b90508181036020830152611b2f8188611827565b9050611b3e604083018761171a565b611b4b6060830186611744565b611b5860808301856118af565b611b6560a083018461171a565b979650505050505050565b600060a0820190508181036000830152611b8a8188611827565b90508181036020830152611b9e8187611827565b9050611bad6040830186611744565b611bba606083018561171a565b611bc7608083018461171a565b9695505050505050565b7f696e646578206f7574206f6620626f756e6420666f722072657175657374206d60008201527f617070696e670000000000000000000000000000000000000000000000000000602082015250565b6000611c2d6026836117d2565b9150611c3882611bd1565b604082019050919050565b60006020820190508181036000830152611c5c81611c20565b9050919050565b7f4e487b7100000000000000000000000000000000000000000000000000000000600052603260045260246000fd5b7f526571756573742046696e616c6973656420616c726561647900000000000000600082015250565b6000611cc86019836117d2565b9150611cd382611c92565b602082019050919050565b60006020820190508181036000830152611cf781611cbb565b9050919050565b7f526571756573742068617320676174686572656420726571756573746564206160008201527f6d6f756e74000000000000000000000000000000000000000000000000000000602082015250565b6000611d5a6025836117d2565b9150611d6582611cfe565b604082019050919050565b60006020820190508181036000830152611d8981611d4d565b9050919050565b7f596f7520646f6e74206861766520656e6f75676820766f74696e6720706f776560008201527f722e4f627461696e20766f74696e6720706f7765722062792072616973696e6760208201527f2066756e64000000000000000000000000000000000000000000000000000000604082015250565b6000611e126045836117d2565b9150611e1d82611d90565b606082019050919050565b60006020820190508181036000830152611e4181611e05565b9050919050565b7f4e487b7100000000000000000000000000000000000000000000000000000000600052601160045260246000fd5b6000611e8282611710565b9150611e8d83611710565b925082821015611ea057611e9f611e48565b5b828203905092915050565b6000611eb682611710565b9150611ec183611710565b9250827fffffffffffffffffffffffffffffffffffffffffffffffffffffffffffffffff03821115611ef657611ef5611e48565b5b828201905092915050565b7f4e487b7100000000000000000000000000000000000000000000000000000000600052602260045260246000fd5b60006002820490506001821680611f4857607f821691505b60208210811415611f5c57611f5b611f01565b5b50919050565b7f796f7520646f6e74206861766520617574686f7269747920746f20637265617460008201527f6520726571756573747300000000000000000000000000000000000000000000602082015250565b6000611fbe602a836117d2565b9150611fc982611f62565b604082019050919050565b60006020820190508181036000830152611fed81611fb1565b9050919050565b7f526571756573742046696e616c697365642063616e6e6f7420646f20616e792060008201527f7461726e73616374696f6e000000000000000000000000000000000000000000602082015250565b6000612050602b836117d2565b915061205b82611ff4565b604082019050919050565b6000602082019050818103600083015261207f81612043565b9050919050565b7f496e737566757563656e742062616c616e636520696e2066756e640000000000600082015250565b60006120bc601b836117d2565b91506120c782612086565b602082019050919050565b600060208201905081810360008301526120eb816120af565b9050919050565b7f4e6f74206d616a6f72697479206f7220746172676574206e6f7420616368696560008201527f7665640000000000000000000000000000000000000000000000000000000000602082015250565b600061214e6023836117d2565b9150612159826120f2565b604082019050919050565b6000602082019050818103600083015261217d81612141565b9050919050565b7f446f6e61746174696f6e206c657373207468616e206d696e416d6f756e74206960008201527f73206e6f74206163636570746564000000000000000000000000000000000000602082015250565b60006121e0602e836117d2565b91506121eb82612184565b604082019050919050565b6000602082019050818103600083015261220f816121d3565b905091905056fea2646970667358221220df11efe4455b8063a7046ef68973cef1ed026e133c9b4f1efab5f7a8c914887764736f6c634300080b0033",
  "immutableReferences": {},
  "source": "// SPDX-License-Identifier: MIT\r\npragma solidity >=0.4.22 <0.9.0;\r\ncontract Fund{\r\n    address  public manager;\r\n    string public fundName;\r\n    string public desc;\r\n    uint public minAmount;\r\n    uint public approversCount=0;\r\n    mapping(address=>uint) public approvers;\r\n    mapping(address=>uint) public total;\r\n    struct request{\r\n        string requestName;\r\n        string requestDesc;\r\n        uint requestedAmount;\r\n        address payable receiverAddress;\r\n        bool isCompleted;\r\n        uint balance;\r\n    }\r\n\r\n    request[] public requests;\r\n\r\n    constructor(address _manager,string  memory _fundName,string memory _desc,uint  _minAmount)\r\n    {\r\n        require(bytes(_fundName).length>2 ,\"Fund Name should have proper title\");\r\n        require(_minAmount>0 ,\"Minimum amount of eth shoud greater than 0\");\r\n        manager=_manager;\r\n        fundName=_fundName;\r\n        desc=_desc;\r\n        minAmount=_minAmount;\r\n\r\n    }\r\n    function donate() public payable\r\n    {   require(msg.value>=minAmount,\"Donatation less than minAmount is not accepted\");\r\n        if(approvers[msg.sender]==0)\r\n        approversCount=approversCount+1;\r\n        approvers[msg.sender]=approvers[msg.sender]+msg.value;\r\n        total[msg.sender]=total[msg.sender]+msg.value;\r\n    }\r\n    function getBalance() public view returns(uint)\r\n    {\r\n        return address(this).balance;\r\n    }\r\n    modifier isManager{\r\n        require(msg.sender==manager,\"you dont have authority to create requests\");\r\n        _;\r\n    }\r\n    function createRequest(string memory _requestName,string memory _requestDesc,uint _requestedAmount,\r\n    address _receiverAddress\r\n    ) public isManager payable\r\n      {  require(_requestedAmount<=address(this).balance);\r\n\r\n        requests.push(request(_requestName,_requestDesc,_requestedAmount,payable(_receiverAddress),false,0));\r\n\r\n    }\r\n\r\n    function voteRequest(uint idx) public payable\r\n    {\r\n        require(idx>=0 && idx<requests.length,\"index out of bound for request mapping\");\r\n        require(requests[idx].isCompleted==false,\"Request Finalised already\");\r\n        require(requests[idx].balance<requests[idx].requestedAmount,\"Request has gathered requested amount\");\r\n        require(approvers[msg.sender]>0,\"You dont have enough voting power.Obtain voting power by raising fund\");\r\n\r\n        if(approvers[msg.sender]>requests[idx].requestedAmount-requests[idx].balance)\r\n        {\r\n            uint tmp=approvers[msg.sender]+requests[idx].balance;\r\n            tmp=tmp-requests[idx].requestedAmount;\r\n            approvers[msg.sender]=tmp;\r\n            requests[idx].balance=requests[idx].requestedAmount;\r\n\r\n        }\r\n        else\r\n        {\r\n            requests[idx].balance=requests[idx].balance+approvers[msg.sender];\r\n            approvers[msg.sender]=0;\r\n        }\r\n\r\n    }\r\n    function finaliseAndSend(uint idx) public isManager payable{\r\n        require(idx>=0 && idx<requests.length,\"index out of bound for request mapping\");\r\n        require(requests[idx].isCompleted==false,\"Request Finalised cannot do any tarnsaction\");\r\n        require(requests[idx].requestedAmount<=address(this).balance,\"Insufuucent balance in fund\");\r\n        require(requests[idx].balance==requests[idx].requestedAmount,\"Not majority or target not achieved\");\r\n        requests[idx].receiverAddress.transfer(requests[idx].requestedAmount);\r\n        requests[idx].isCompleted=true;\r\n    }\r\n\r\n    function getDetails() public view returns(string memory,string memory,address ,uint,uint){\r\n        return(fundName,desc,manager,address(this).balance,minAmount);\r\n    }\r\n    function getRequestsSize() public view returns(uint)\r\n    {\r\n        return (requests.length);\r\n    }\r\n    function getRequests(uint idx) public view returns(string memory,string memory,uint,address,bool,uint)\r\n    {\r\n        return(requests[idx].requestName,requests[idx].requestDesc,requests[idx].requestedAmount,requests[idx].receiverAddress,requests[idx].isCompleted,requests[idx].balance);\r\n    }\r\n}",
  "sourcePath": "C:\\Users\\Ritik Kumar\\Desktop\\charity-fund\\contracts\\Fund.sol",
  "compiler": {
    "name": "solc",
    "version": "0.8.11+commit.d7f03943.Emscripten.clang"
  },
  "schemaVersion": "3.4.4",
  "updatedAt": "2022-04-15T18:05:40.183Z",
  "devdoc": {
    "kind": "dev",
    "methods": {},
    "version": 1
  },
  "userdoc": {
    "kind": "user",
    "methods": {},
    "version": 1
  }
}