{
  "contractName": "Fund",
  "abi": [
    {
      "inputs": [
        {
          "internalType": "address",
          "name": "_manager",
          "type": "address"
        },
        {
          "internalType": "string",
          "name": "_fundName",
          "type": "string"
        },
        {
          "internalType": "string",
          "name": "_desc",
          "type": "string"
        },
        {
          "internalType": "uint256",
          "name": "_minAmount",
          "type": "uint256"
        }
      ],
      "stateMutability": "nonpayable",
      "type": "constructor"
    },
    {
      "inputs": [
        {
          "internalType": "address",
          "name": "",
          "type": "address"
        }
      ],
      "name": "approvers",
      "outputs": [
        {
          "internalType": "uint256",
          "name": "",
          "type": "uint256"
        }
      ],
      "stateMutability": "view",
      "type": "function"
    },
    {
      "inputs": [],
      "name": "approversCount",
      "outputs": [
        {
          "internalType": "uint256",
          "name": "",
          "type": "uint256"
        }
      ],
      "stateMutability": "view",
      "type": "function"
    },
    {
      "inputs": [],
      "name": "desc",
      "outputs": [
        {
          "internalType": "string",
          "name": "",
          "type": "string"
        }
      ],
      "stateMutability": "view",
      "type": "function"
    },
    {
      "inputs": [],
      "name": "fundName",
      "outputs": [
        {
          "internalType": "string",
          "name": "",
          "type": "string"
        }
      ],
      "stateMutability": "view",
      "type": "function"
    },
    {
      "inputs": [],
      "name": "manager",
      "outputs": [
        {
          "internalType": "address",
          "name": "",
          "type": "address"
        }
      ],
      "stateMutability": "view",
      "type": "function"
    },
    {
      "inputs": [],
      "name": "minAmount",
      "outputs": [
        {
          "internalType": "uint256",
          "name": "",
          "type": "uint256"
        }
      ],
      "stateMutability": "view",
      "type": "function"
    },
    {
      "inputs": [
        {
          "internalType": "uint256",
          "name": "",
          "type": "uint256"
        }
      ],
      "name": "requests",
      "outputs": [
        {
          "internalType": "string",
          "name": "requestName",
          "type": "string"
        },
        {
          "internalType": "string",
          "name": "requestDesc",
          "type": "string"
        },
        {
          "internalType": "uint256",
          "name": "requestedAmount",
          "type": "uint256"
        },
        {
          "internalType": "address payable",
          "name": "receiverAddress",
          "type": "address"
        },
        {
          "internalType": "bool",
          "name": "isCompleted",
          "type": "bool"
        },
        {
          "internalType": "uint256",
          "name": "balance",
          "type": "uint256"
        }
      ],
      "stateMutability": "view",
      "type": "function"
    },
    {
      "inputs": [
        {
          "internalType": "address",
          "name": "",
          "type": "address"
        }
      ],
      "name": "total",
      "outputs": [
        {
          "internalType": "uint256",
          "name": "",
          "type": "uint256"
        }
      ],
      "stateMutability": "view",
      "type": "function"
    },
    {
      "inputs": [],
      "name": "donate",
      "outputs": [],
      "stateMutability": "payable",
      "type": "function"
    },
    {
      "inputs": [],
      "name": "getBalance",
      "outputs": [
        {
          "internalType": "uint256",
          "name": "",
          "type": "uint256"
        }
      ],
      "stateMutability": "view",
      "type": "function"
    },
    {
      "inputs": [
        {
          "internalType": "string",
          "name": "_requestName",
          "type": "string"
        },
        {
          "internalType": "string",
          "name": "_requestDesc",
          "type": "string"
        },
        {
          "internalType": "uint256",
          "name": "_requestedAmount",
          "type": "uint256"
        },
        {
          "internalType": "address",
          "name": "_receiverAddress",
          "type": "address"
        }
      ],
      "name": "createRequest",
      "outputs": [],
      "stateMutability": "nonpayable",
      "type": "function"
    },
    {
      "inputs": [
        {
          "internalType": "uint256",
          "name": "idx",
          "type": "uint256"
        }
      ],
      "name": "voteRequest",
      "outputs": [],
      "stateMutability": "nonpayable",
      "type": "function"
    },
    {
      "inputs": [
        {
          "internalType": "uint256",
          "name": "idx",
          "type": "uint256"
        }
      ],
      "name": "finaliseAndSend",
      "outputs": [],
      "stateMutability": "payable",
      "type": "function"
    },
    {
      "inputs": [],
      "name": "getDetails",
      "outputs": [
        {
          "internalType": "string",
          "name": "",
          "type": "string"
        },
        {
          "internalType": "string",
          "name": "",
          "type": "string"
        },
        {
          "internalType": "address",
          "name": "",
          "type": "address"
        },
        {
          "internalType": "uint256",
          "name": "",
          "type": "uint256"
        },
        {
          "internalType": "uint256",
          "name": "",
          "type": "uint256"
        },
        {
          "internalType": "uint256",
          "name": "",
          "type": "uint256"
        }
      ],
      "stateMutability": "view",
      "type": "function"
    },
    {
      "inputs": [],
      "name": "getRequestsSize",
      "outputs": [
        {
          "internalType": "uint256",
          "name": "",
          "type": "uint256"
        }
      ],
      "stateMutability": "view",
      "type": "function"
    },
    {
      "inputs": [
        {
          "internalType": "uint256",
          "name": "idx",
          "type": "uint256"
        }
      ],
      "name": "getRequests",
      "outputs": [
        {
          "internalType": "string",
          "name": "",
          "type": "string"
        },
        {
          "internalType": "string",
          "name": "",
          "type": "string"
        },
        {
          "internalType": "uint256",
          "name": "",
          "type": "uint256"
        },
        {
          "internalType": "address",
          "name": "",
          "type": "address"
        },
        {
          "internalType": "bool",
          "name": "",
          "type": "bool"
        },
        {
          "internalType": "uint256",
          "name": "",
          "type": "uint256"
        }
      ],
      "stateMutability": "view",
      "type": "function"
    }
  ],
  "bytecode": "0x608060405260006004553480156200001657600080fd5b506040516200292f3803806200292f83398181016040528101906200003c919062000439565b600283511162000083576040517f08c379a00000000000000000000000000000000000000000000000000000000081526004016200007a9062000570565b60405180910390fd5b60008111620000c9576040517f08c379a0000000000000000000000000000000000000000000000000000000008152600401620000c09062000608565b60405180910390fd5b836000806101000a81548173ffffffffffffffffffffffffffffffffffffffff021916908373ffffffffffffffffffffffffffffffffffffffff1602179055508260019080519060200190620001219291906200014c565b5081600290805190602001906200013a9291906200014c565b5080600381905550505050506200068f565b8280546200015a9062000659565b90600052602060002090601f0160209004810192826200017e5760008555620001ca565b82601f106200019957805160ff1916838001178555620001ca565b82800160010185558215620001ca579182015b82811115620001c9578251825591602001919060010190620001ac565b5b509050620001d99190620001dd565b5090565b5b80821115620001f8576000816000905550600101620001de565b5090565b6000604051905090565b600080fd5b600080fd5b600073ffffffffffffffffffffffffffffffffffffffff82169050919050565b60006200023d8262000210565b9050919050565b6200024f8162000230565b81146200025b57600080fd5b50565b6000815190506200026f8162000244565b92915050565b600080fd5b600080fd5b6000601f19601f8301169050919050565b7f4e487b7100000000000000000000000000000000000000000000000000000000600052604160045260246000fd5b620002ca826200027f565b810181811067ffffffffffffffff82111715620002ec57620002eb62000290565b5b80604052505050565b600062000301620001fc565b90506200030f8282620002bf565b919050565b600067ffffffffffffffff82111562000332576200033162000290565b5b6200033d826200027f565b9050602081019050919050565b60005b838110156200036a5780820151818401526020810190506200034d565b838111156200037a576000848401525b50505050565b600062000397620003918462000314565b620002f5565b905082815260208101848484011115620003b657620003b56200027a565b5b620003c38482856200034a565b509392505050565b600082601f830112620003e357620003e262000275565b5b8151620003f584826020860162000380565b91505092915050565b6000819050919050565b6200041381620003fe565b81146200041f57600080fd5b50565b600081519050620004338162000408565b92915050565b6000806000806080858703121562000456576200045562000206565b5b600062000466878288016200025e565b945050602085015167ffffffffffffffff8111156200048a57620004896200020b565b5b6200049887828801620003cb565b935050604085015167ffffffffffffffff811115620004bc57620004bb6200020b565b5b620004ca87828801620003cb565b9250506060620004dd8782880162000422565b91505092959194509250565b600082825260208201905092915050565b7f46756e64204e616d652073686f756c6420686176652070726f7065722074697460008201527f6c65000000000000000000000000000000000000000000000000000000000000602082015250565b600062000558602283620004e9565b91506200056582620004fa565b604082019050919050565b600060208201905081810360008301526200058b8162000549565b9050919050565b7f4d696e696d756d20616d6f756e74206f66206574682073686f7564206772656160008201527f746572207468616e203000000000000000000000000000000000000000000000602082015250565b6000620005f0602a83620004e9565b9150620005fd8262000592565b604082019050919050565b600060208201905081810360008301526200062381620005e1565b9050919050565b7f4e487b7100000000000000000000000000000000000000000000000000000000600052602260045260246000fd5b600060028204905060018216806200067257607f821691505b602082108114156200068957620006886200062a565b5b50919050565b612290806200069f6000396000f3fe6080604052600436106100f35760003560e01c80639ce1413b1161008a578063d2514e8411610059578063d2514e8414610312578063d5e788291461034f578063ed88c68e14610391578063fbbf93a01461039b576100f3565b80639ce1413b14610277578063be46d098146102a2578063c0d5bce5146102cd578063c7741265146102e9576100f3565b806355f150f1116100c657806355f150f1146101b457806381d12c58146101df57806382fde093146102215780639b2cb5d81461024c576100f3565b80630a144391146100f857806312065fe014610135578063481c6a75146101605780634cb6f4a51461018b575b600080fd5b34801561010457600080fd5b5061011f600480360381019061011a9190611719565b6103cb565b60405161012c919061175f565b60405180910390f35b34801561014157600080fd5b5061014a6103e3565b604051610157919061175f565b60405180910390f35b34801561016c57600080fd5b506101756103eb565b6040516101829190611789565b60405180910390f35b34801561019757600080fd5b506101b260048036038101906101ad91906117d0565b61040f565b005b3480156101c057600080fd5b506101c96108a8565b6040516101d69190611896565b60405180910390f35b3480156101eb57600080fd5b50610206600480360381019061020191906117d0565b610936565b604051610218969594939291906118f4565b60405180910390f35b34801561022d57600080fd5b50610236610abf565b604051610243919061175f565b60405180910390f35b34801561025857600080fd5b50610261610ac5565b60405161026e919061175f565b60405180910390f35b34801561028357600080fd5b5061028c610acb565b6040516102999190611896565b60405180910390f35b3480156102ae57600080fd5b506102b7610b59565b6040516102c4919061175f565b60405180910390f35b6102e760048036038101906102e291906117d0565b610b66565b005b3480156102f557600080fd5b50610310600480360381019061030b9190611a98565b610ea7565b005b34801561031e57600080fd5b5061033960048036038101906103349190611719565b611071565b604051610346919061175f565b60405180910390f35b34801561035b57600080fd5b50610376600480360381019061037191906117d0565b611089565b60405161038896959493929190611b37565b60405180910390f35b6103996112ce565b005b3480156103a757600080fd5b506103b06114a3565b6040516103c296959493929190611ba6565b60405180910390f35b60056020528060005260406000206000915090505481565b600047905090565b60008054906101000a900473ffffffffffffffffffffffffffffffffffffffff1681565b60008110158015610424575060088054905081105b610463576040517f08c379a000000000000000000000000000000000000000000000000000000000815260040161045a90611c87565b60405180910390fd5b600015156008828154811061047b5761047a611ca7565b5b906000526020600020906005020160030160149054906101000a900460ff161515146104dc576040517f08c379a00000000000000000000000000000000000000000000000000000000081526004016104d390611d22565b60405180910390fd5b600881815481106104f0576104ef611ca7565b5b9060005260206000209060050201600201546008828154811061051657610515611ca7565b5b90600052602060002090600502016004015410610568576040517f08c379a000000000000000000000000000000000000000000000000000000000815260040161055f90611db4565b60405180910390fd5b6000600560003373ffffffffffffffffffffffffffffffffffffffff1673ffffffffffffffffffffffffffffffffffffffff16815260200190815260200160002054116105ea576040517f08c379a00000000000000000000000000000000000000000000000000000000081526004016105e190611e6c565b60405180910390fd5b600881815481106105fe576105fd611ca7565b5b9060005260206000209060050201600401546008828154811061062457610623611ca7565b5b9060005260206000209060050201600201546106409190611ebb565b600560003373ffffffffffffffffffffffffffffffffffffffff1673ffffffffffffffffffffffffffffffffffffffff1681526020019081526020016000205411156107c65760006008828154811061069c5761069b611ca7565b5b906000526020600020906005020160040154600560003373ffffffffffffffffffffffffffffffffffffffff1673ffffffffffffffffffffffffffffffffffffffff168152602001908152602001600020546106f89190611eef565b90506008828154811061070e5761070d611ca7565b5b9060005260206000209060050201600201548161072b9190611ebb565b905080600560003373ffffffffffffffffffffffffffffffffffffffff1673ffffffffffffffffffffffffffffffffffffffff168152602001908152602001600020819055506008828154811061078557610784611ca7565b5b906000526020600020906005020160020154600883815481106107ab576107aa611ca7565b5b906000526020600020906005020160040181905550506108a5565b600560003373ffffffffffffffffffffffffffffffffffffffff1673ffffffffffffffffffffffffffffffffffffffff168152602001908152602001600020546008828154811061081a57610819611ca7565b5b9060005260206000209060050201600401546108369190611eef565b6008828154811061084a57610849611ca7565b5b9060005260206000209060050201600401819055506000600560003373ffffffffffffffffffffffffffffffffffffffff1673ffffffffffffffffffffffffffffffffffffffff168152602001908152602001600020819055505b50565b600280546108b590611f74565b80601f01602080910402602001604051908101604052809291908181526020018280546108e190611f74565b801561092e5780601f106109035761010080835404028352916020019161092e565b820191906000526020600020905b81548152906001019060200180831161091157829003601f168201915b505050505081565b6008818154811061094657600080fd5b906000526020600020906005020160009150905080600001805461096990611f74565b80601f016020809104026020016040519081016040528092919081815260200182805461099590611f74565b80156109e25780601f106109b7576101008083540402835291602001916109e2565b820191906000526020600020905b8154815290600101906020018083116109c557829003601f168201915b5050505050908060010180546109f790611f74565b80601f0160208091040260200160405190810160405280929190818152602001828054610a2390611f74565b8015610a705780601f10610a4557610100808354040283529160200191610a70565b820191906000526020600020905b815481529060010190602001808311610a5357829003601f168201915b5050505050908060020154908060030160009054906101000a900473ffffffffffffffffffffffffffffffffffffffff16908060030160149054906101000a900460ff16908060040154905086565b60045481565b60035481565b60018054610ad890611f74565b80601f0160208091040260200160405190810160405280929190818152602001828054610b0490611f74565b8015610b515780601f10610b2657610100808354040283529160200191610b51565b820191906000526020600020905b815481529060010190602001808311610b3457829003601f168201915b505050505081565b6000600880549050905090565b60008054906101000a900473ffffffffffffffffffffffffffffffffffffffff1673ffffffffffffffffffffffffffffffffffffffff163373ffffffffffffffffffffffffffffffffffffffff1614610bf4576040517f08c379a0000000000000000000000000000000000000000000000000000000008152600401610beb90612018565b60405180910390fd5b60008110158015610c09575060088054905081105b610c48576040517f08c379a0000000000000000000000000000000000000000000000000000000008152600401610c3f90611c87565b60405180910390fd5b6000151560088281548110610c6057610c5f611ca7565b5b906000526020600020906005020160030160149054906101000a900460ff16151514610cc1576040517f08c379a0000000000000000000000000000000000000000000000000000000008152600401610cb8906120aa565b60405180910390fd5b4760088281548110610cd657610cd5611ca7565b5b9060005260206000209060050201600201541115610d29576040517f08c379a0000000000000000000000000000000000000000000000000000000008152600401610d2090612116565b60405180910390fd5b60088181548110610d3d57610d3c611ca7565b5b90600052602060002090600502016002015460088281548110610d6357610d62611ca7565b5b90600052602060002090600502016004015414610db5576040517f08c379a0000000000000000000000000000000000000000000000000000000008152600401610dac906121a8565b60405180910390fd5b60088181548110610dc957610dc8611ca7565b5b906000526020600020906005020160030160009054906101000a900473ffffffffffffffffffffffffffffffffffffffff1673ffffffffffffffffffffffffffffffffffffffff166108fc60088381548110610e2857610e27611ca7565b5b9060005260206000209060050201600201549081150290604051600060405180830381858888f19350505050158015610e65573d6000803e3d6000fd5b50600160088281548110610e7c57610e7b611ca7565b5b906000526020600020906005020160030160146101000a81548160ff02191690831515021790555050565b60008054906101000a900473ffffffffffffffffffffffffffffffffffffffff1673ffffffffffffffffffffffffffffffffffffffff163373ffffffffffffffffffffffffffffffffffffffff1614610f35576040517f08c379a0000000000000000000000000000000000000000000000000000000008152600401610f2c90612018565b60405180910390fd5b47821115610f4257600080fd5b60086040518060c001604052808681526020018581526020018481526020018373ffffffffffffffffffffffffffffffffffffffff168152602001600015158152602001600081525090806001815401808255809150506001900390600052602060002090600502016000909190919091506000820151816000019080519060200190610fd0929190611604565b506020820151816001019080519060200190610fed929190611604565b506040820151816002015560608201518160030160006101000a81548173ffffffffffffffffffffffffffffffffffffffff021916908373ffffffffffffffffffffffffffffffffffffffff16021790555060808201518160030160146101000a81548160ff02191690831515021790555060a08201518160040155505050505050565b60066020528060005260406000206000915090505481565b606080600080600080600887815481106110a6576110a5611ca7565b5b9060005260206000209060050201600001600888815481106110cb576110ca611ca7565b5b9060005260206000209060050201600101600889815481106110f0576110ef611ca7565b5b90600052602060002090600502016002015460088a8154811061111657611115611ca7565b5b906000526020600020906005020160030160009054906101000a900473ffffffffffffffffffffffffffffffffffffffff1660088b8154811061115c5761115b611ca7565b5b906000526020600020906005020160030160149054906101000a900460ff1660088c8154811061118f5761118e611ca7565b5b9060005260206000209060050201600401548580546111ad90611f74565b80601f01602080910402602001604051908101604052809291908181526020018280546111d990611f74565b80156112265780601f106111fb57610100808354040283529160200191611226565b820191906000526020600020905b81548152906001019060200180831161120957829003601f168201915b5050505050955084805461123990611f74565b80601f016020809104026020016040519081016040528092919081815260200182805461126590611f74565b80156112b25780601f10611287576101008083540402835291602001916112b2565b820191906000526020600020905b81548152906001019060200180831161129557829003601f168201915b5050505050945095509550955095509550955091939550919395565b600354341015611313576040517f08c379a000000000000000000000000000000000000000000000000000000000815260040161130a9061223a565b60405180910390fd5b6000600560003373ffffffffffffffffffffffffffffffffffffffff1673ffffffffffffffffffffffffffffffffffffffff16815260200190815260200160002054141561137157600160045461136a9190611eef565b6004819055505b34600560003373ffffffffffffffffffffffffffffffffffffffff1673ffffffffffffffffffffffffffffffffffffffff168152602001908152602001600020546113bc9190611eef565b600560003373ffffffffffffffffffffffffffffffffffffffff1673ffffffffffffffffffffffffffffffffffffffff1681526020019081526020016000208190555034600660003373ffffffffffffffffffffffffffffffffffffffff1673ffffffffffffffffffffffffffffffffffffffff1681526020019081526020016000205461144a9190611eef565b600660003373ffffffffffffffffffffffffffffffffffffffff1673ffffffffffffffffffffffffffffffffffffffff168152602001908152602001600020819055503460075461149b9190611eef565b600781905550565b6060806000806000806001600260008054906101000a900473ffffffffffffffffffffffffffffffffffffffff16476003546007548580546114e490611f74565b80601f016020809104026020016040519081016040528092919081815260200182805461151090611f74565b801561155d5780601f106115325761010080835404028352916020019161155d565b820191906000526020600020905b81548152906001019060200180831161154057829003601f168201915b5050505050955084805461157090611f74565b80601f016020809104026020016040519081016040528092919081815260200182805461159c90611f74565b80156115e95780601f106115be576101008083540402835291602001916115e9565b820191906000526020600020905b8154815290600101906020018083116115cc57829003601f168201915b50505050509450955095509550955095509550909192939495565b82805461161090611f74565b90600052602060002090601f0160209004810192826116325760008555611679565b82601f1061164b57805160ff1916838001178555611679565b82800160010185558215611679579182015b8281111561167857825182559160200191906001019061165d565b5b509050611686919061168a565b5090565b5b808211156116a357600081600090555060010161168b565b5090565b6000604051905090565b600080fd5b600080fd5b600073ffffffffffffffffffffffffffffffffffffffff82169050919050565b60006116e6826116bb565b9050919050565b6116f6816116db565b811461170157600080fd5b50565b600081359050611713816116ed565b92915050565b60006020828403121561172f5761172e6116b1565b5b600061173d84828501611704565b91505092915050565b6000819050919050565b61175981611746565b82525050565b60006020820190506117746000830184611750565b92915050565b611783816116db565b82525050565b600060208201905061179e600083018461177a565b92915050565b6117ad81611746565b81146117b857600080fd5b50565b6000813590506117ca816117a4565b92915050565b6000602082840312156117e6576117e56116b1565b5b60006117f4848285016117bb565b91505092915050565b600081519050919050565b600082825260208201905092915050565b60005b8381101561183757808201518184015260208101905061181c565b83811115611846576000848401525b50505050565b6000601f19601f8301169050919050565b6000611868826117fd565b6118728185611808565b9350611882818560208601611819565b61188b8161184c565b840191505092915050565b600060208201905081810360008301526118b0818461185d565b905092915050565b60006118c3826116bb565b9050919050565b6118d3816118b8565b82525050565b60008115159050919050565b6118ee816118d9565b82525050565b600060c082019050818103600083015261190e818961185d565b90508181036020830152611922818861185d565b90506119316040830187611750565b61193e60608301866118ca565b61194b60808301856118e5565b61195860a0830184611750565b979650505050505050565b600080fd5b600080fd5b7f4e487b7100000000000000000000000000000000000000000000000000000000600052604160045260246000fd5b6119a58261184c565b810181811067ffffffffffffffff821117156119c4576119c361196d565b5b80604052505050565b60006119d76116a7565b90506119e3828261199c565b919050565b600067ffffffffffffffff821115611a0357611a0261196d565b5b611a0c8261184c565b9050602081019050919050565b82818337600083830152505050565b6000611a3b611a36846119e8565b6119cd565b905082815260208101848484011115611a5757611a56611968565b5b611a62848285611a19565b509392505050565b600082601f830112611a7f57611a7e611963565b5b8135611a8f848260208601611a28565b91505092915050565b60008060008060808587031215611ab257611ab16116b1565b5b600085013567ffffffffffffffff811115611ad057611acf6116b6565b5b611adc87828801611a6a565b945050602085013567ffffffffffffffff811115611afd57611afc6116b6565b5b611b0987828801611a6a565b9350506040611b1a878288016117bb565b9250506060611b2b87828801611704565b91505092959194509250565b600060c0820190508181036000830152611b51818961185d565b90508181036020830152611b65818861185d565b9050611b746040830187611750565b611b81606083018661177a565b611b8e60808301856118e5565b611b9b60a0830184611750565b979650505050505050565b600060c0820190508181036000830152611bc0818961185d565b90508181036020830152611bd4818861185d565b9050611be3604083018761177a565b611bf06060830186611750565b611bfd6080830185611750565b611c0a60a0830184611750565b979650505050505050565b7f696e646578206f7574206f6620626f756e6420666f722072657175657374206d60008201527f617070696e670000000000000000000000000000000000000000000000000000602082015250565b6000611c71602683611808565b9150611c7c82611c15565b604082019050919050565b60006020820190508181036000830152611ca081611c64565b9050919050565b7f4e487b7100000000000000000000000000000000000000000000000000000000600052603260045260246000fd5b7f526571756573742046696e616c6973656420616c726561647900000000000000600082015250565b6000611d0c601983611808565b9150611d1782611cd6565b602082019050919050565b60006020820190508181036000830152611d3b81611cff565b9050919050565b7f526571756573742068617320676174686572656420726571756573746564206160008201527f6d6f756e74000000000000000000000000000000000000000000000000000000602082015250565b6000611d9e602583611808565b9150611da982611d42565b604082019050919050565b60006020820190508181036000830152611dcd81611d91565b9050919050565b7f596f7520646f6e74206861766520656e6f75676820766f74696e6720706f776560008201527f722e4f627461696e20766f74696e6720706f7765722062792072616973696e6760208201527f2066756e64000000000000000000000000000000000000000000000000000000604082015250565b6000611e56604583611808565b9150611e6182611dd4565b606082019050919050565b60006020820190508181036000830152611e8581611e49565b9050919050565b7f4e487b7100000000000000000000000000000000000000000000000000000000600052601160045260246000fd5b6000611ec682611746565b9150611ed183611746565b925082821015611ee457611ee3611e8c565b5b828203905092915050565b6000611efa82611746565b9150611f0583611746565b9250827fffffffffffffffffffffffffffffffffffffffffffffffffffffffffffffffff03821115611f3a57611f39611e8c565b5b828201905092915050565b7f4e487b7100000000000000000000000000000000000000000000000000000000600052602260045260246000fd5b60006002820490506001821680611f8c57607f821691505b60208210811415611fa057611f9f611f45565b5b50919050565b7f796f7520646f6e74206861766520617574686f7269747920746f20637265617460008201527f6520726571756573747300000000000000000000000000000000000000000000602082015250565b6000612002602a83611808565b915061200d82611fa6565b604082019050919050565b6000602082019050818103600083015261203181611ff5565b9050919050565b7f526571756573742046696e616c697365642063616e6e6f7420646f20616e792060008201527f7461726e73616374696f6e000000000000000000000000000000000000000000602082015250565b6000612094602b83611808565b915061209f82612038565b604082019050919050565b600060208201905081810360008301526120c381612087565b9050919050565b7f696e73756666696369656e742062616c616e636520696e2066756e6400000000600082015250565b6000612100601c83611808565b915061210b826120ca565b602082019050919050565b6000602082019050818103600083015261212f816120f3565b9050919050565b7f4e6f74206d616a6f72697479206f7220746172676574206e6f7420616368696560008201527f7665640000000000000000000000000000000000000000000000000000000000602082015250565b6000612192602383611808565b915061219d82612136565b604082019050919050565b600060208201905081810360008301526121c181612185565b9050919050565b7f446f6e61746174696f6e206c657373207468616e206d696e416d6f756e74206960008201527f73206e6f74206163636570746564000000000000000000000000000000000000602082015250565b6000612224602e83611808565b915061222f826121c8565b604082019050919050565b6000602082019050818103600083015261225381612217565b905091905056fea264697066735822122010a821fed28be73334a4cb250ff1121d7447b45564e9e76b4b43cf8af45ada9a64736f6c634300080b0033",
  "immutableReferences": {},
  "source": "// SPDX-License-Identifier: MIT\r\npragma solidity >=0.4.22 <0.9.0;\r\ncontract Fund{\r\n    address  public manager;\r\n    string public fundName;\r\n    string public desc;\r\n    uint public minAmount;\r\n    uint public approversCount=0;\r\n    mapping(address=>uint) public approvers;\r\n    mapping(address=>uint) public total;\r\n    uint totalRaisedAmount;\r\n    struct request{\r\n        string requestName;\r\n        string requestDesc;\r\n        uint requestedAmount;\r\n        address payable receiverAddress;\r\n        bool isCompleted;\r\n        uint balance;\r\n    }\r\n\r\n    request[] public requests;\r\n\r\n    constructor(address _manager,string  memory _fundName,string memory _desc,uint  _minAmount)\r\n    {\r\n        require(bytes(_fundName).length>2 ,\"Fund Name should have proper title\");\r\n        require(_minAmount>0 ,\"Minimum amount of eth shoud greater than 0\");\r\n        manager=_manager;\r\n        fundName=_fundName;\r\n        desc=_desc;\r\n        minAmount=_minAmount;\r\n\r\n    }\r\n    function donate() public payable\r\n    {   require(msg.value>=minAmount,\"Donatation less than minAmount is not accepted\");\r\n        if(approvers[msg.sender]==0)\r\n        approversCount=approversCount+1;\r\n        approvers[msg.sender]=approvers[msg.sender]+msg.value;\r\n        total[msg.sender]=total[msg.sender]+msg.value;\r\n        totalRaisedAmount=totalRaisedAmount+msg.value;\r\n    }\r\n    function getBalance() public view returns(uint)\r\n    {\r\n        return address(this).balance;\r\n    }\r\n    modifier isManager{\r\n        require(msg.sender==manager,\"you dont have authority to create requests\");\r\n        _;\r\n    }\r\n    function createRequest(string memory _requestName,string memory _requestDesc,uint _requestedAmount,\r\n    address _receiverAddress\r\n    ) public isManager\r\n      {  require(_requestedAmount<=address(this).balance);\r\n\r\n        requests.push(request(_requestName,_requestDesc,_requestedAmount,payable(_receiverAddress),false,0));\r\n\r\n    }\r\n\r\n    function voteRequest(uint idx) public\r\n    {\r\n        require(idx>=0 && idx<requests.length,\"index out of bound for request mapping\");\r\n        require(requests[idx].isCompleted==false,\"Request Finalised already\");\r\n        require(requests[idx].balance<requests[idx].requestedAmount,\"Request has gathered requested amount\");\r\n        require(approvers[msg.sender]>0,\"You dont have enough voting power.Obtain voting power by raising fund\");\r\n\r\n        if(approvers[msg.sender]>requests[idx].requestedAmount-requests[idx].balance)\r\n        {\r\n            uint tmp=approvers[msg.sender]+requests[idx].balance;\r\n            tmp=tmp-requests[idx].requestedAmount;\r\n            approvers[msg.sender]=tmp;\r\n            requests[idx].balance=requests[idx].requestedAmount;\r\n\r\n        }\r\n        else\r\n        {\r\n            requests[idx].balance=requests[idx].balance+approvers[msg.sender];\r\n            approvers[msg.sender]=0;\r\n        }\r\n\r\n    }\r\n    function finaliseAndSend(uint idx) public isManager payable{\r\n        require(idx>=0 && idx<requests.length,\"index out of bound for request mapping\");\r\n        require(requests[idx].isCompleted==false,\"Request Finalised cannot do any tarnsaction\");\r\n        require(requests[idx].requestedAmount<=address(this).balance,\"insufficient balance in fund\");\r\n        require(requests[idx].balance==requests[idx].requestedAmount,\"Not majority or target not achieved\");\r\n        requests[idx].receiverAddress.transfer(requests[idx].requestedAmount);\r\n        requests[idx].isCompleted=true;\r\n    }\r\n\r\n    function getDetails() public view returns(string memory,string memory,address ,uint,uint,uint){\r\n        return(fundName,desc,manager,address(this).balance,minAmount,totalRaisedAmount);\r\n    }\r\n    function getRequestsSize() public view returns(uint)\r\n    {\r\n        return (requests.length);\r\n    }\r\n    function getRequests(uint idx) public view returns(string memory,string memory,uint,address,bool,uint)\r\n    {\r\n        return(requests[idx].requestName,requests[idx].requestDesc,requests[idx].requestedAmount,requests[idx].receiverAddress,requests[idx].isCompleted,requests[idx].balance);\r\n    }\r\n}",
  "sourcePath": "C:\\Users\\Ritik Kumar\\Desktop\\crowdRaising\\contracts\\Fund.sol",
  "compiler": {
    "name": "solc",
    "version": "0.8.11+commit.d7f03943.Emscripten.clang"
  },
  "schemaVersion": "3.4.4",
  "updatedAt": "2022-04-24T14:36:14.926Z",
  "devdoc": {
    "kind": "dev",
    "methods": {},
    "version": 1
  },
  "userdoc": {
    "kind": "user",
    "methods": {},
    "version": 1
  }
}