{
  "contractName": "FundFactory",
  "abi": [
    {
      "inputs": [
        {
          "internalType": "uint256",
          "name": "",
          "type": "uint256"
        }
      ],
      "name": "funds",
      "outputs": [
        {
          "internalType": "address",
          "name": "",
          "type": "address"
        }
      ],
      "stateMutability": "view",
      "type": "function",
      "constant": true
    },
    {
      "inputs": [
        {
          "internalType": "address",
          "name": "_manager",
          "type": "address"
        },
        {
          "internalType": "string",
          "name": "_fundName",
          "type": "string"
        },
        {
          "internalType": "string",
          "name": "_desc",
          "type": "string"
        },
        {
          "internalType": "uint256",
          "name": "_minAmount",
          "type": "uint256"
        }
      ],
      "name": "createFund",
      "outputs": [],
      "stateMutability": "nonpayable",
      "type": "function"
    },
    {
      "inputs": [],
      "name": "getFundsDetails",
      "outputs": [
        {
          "internalType": "address[]",
          "name": "",
          "type": "address[]"
        }
      ],
      "stateMutability": "view",
      "type": "function",
      "constant": true
    }
  ],
  "bytecode": "0x608060405234801561001057600080fd5b506127cc806100206000396000f3fe60806040523480156200001157600080fd5b5060043610620000465760003560e01c80632ad35601146200004b5780637b8e8895146200006b578063cbf31b9c14620000a1575b600080fd5b6200006960048036038101906200006391906200045e565b620000c3565b005b6200008960048036038101906200008391906200050e565b6200016a565b60405162000098919062000551565b60405180910390f35b620000ab620001aa565b604051620000ba91906200063c565b60405180910390f35b600084848484604051620000d7906200023a565b620000e6949392919062000704565b604051809103906000f08015801562000103573d6000803e3d6000fd5b509080600181540180825580915050600190039060005260206000200160009091909190916101000a81548173ffffffffffffffffffffffffffffffffffffffff021916908373ffffffffffffffffffffffffffffffffffffffff16021790555050505050565b600081815481106200017b57600080fd5b906000526020600020016000915054906101000a900473ffffffffffffffffffffffffffffffffffffffff1681565b606060008054806020026020016040519081016040528092919081815260200182805480156200023057602002820191906000526020600020905b8160009054906101000a900473ffffffffffffffffffffffffffffffffffffffff1673ffffffffffffffffffffffffffffffffffffffff1681526020019060010190808311620001e5575b5050505050905090565b612037806200076083390190565b6000604051905090565b600080fd5b600080fd5b600073ffffffffffffffffffffffffffffffffffffffff82169050919050565b600062000289826200025c565b9050919050565b6200029b816200027c565b8114620002a757600080fd5b50565b600081359050620002bb8162000290565b92915050565b600080fd5b600080fd5b6000601f19601f8301169050919050565b7f4e487b7100000000000000000000000000000000000000000000000000000000600052604160045260246000fd5b6200031682620002cb565b810181811067ffffffffffffffff82111715620003385762000337620002dc565b5b80604052505050565b60006200034d62000248565b90506200035b82826200030b565b919050565b600067ffffffffffffffff8211156200037e576200037d620002dc565b5b6200038982620002cb565b9050602081019050919050565b82818337600083830152505050565b6000620003bc620003b68462000360565b62000341565b905082815260208101848484011115620003db57620003da620002c6565b5b620003e884828562000396565b509392505050565b600082601f830112620004085762000407620002c1565b5b81356200041a848260208601620003a5565b91505092915050565b6000819050919050565b620004388162000423565b81146200044457600080fd5b50565b60008135905062000458816200042d565b92915050565b600080600080608085870312156200047b576200047a62000252565b5b60006200048b87828801620002aa565b945050602085013567ffffffffffffffff811115620004af57620004ae62000257565b5b620004bd87828801620003f0565b935050604085013567ffffffffffffffff811115620004e157620004e062000257565b5b620004ef87828801620003f0565b9250506060620005028782880162000447565b91505092959194509250565b60006020828403121562000527576200052662000252565b5b6000620005378482850162000447565b91505092915050565b6200054b816200027c565b82525050565b600060208201905062000568600083018462000540565b92915050565b600081519050919050565b600082825260208201905092915050565b6000819050602082019050919050565b620005a5816200027c565b82525050565b6000620005b983836200059a565b60208301905092915050565b6000602082019050919050565b6000620005df826200056e565b620005eb818562000579565b9350620005f8836200058a565b8060005b838110156200062f578151620006138882620005ab565b97506200062083620005c5565b925050600181019050620005fc565b5085935050505092915050565b60006020820190508181036000830152620006588184620005d2565b905092915050565b600081519050919050565b600082825260208201905092915050565b60005b838110156200069c5780820151818401526020810190506200067f565b83811115620006ac576000848401525b50505050565b6000620006bf8262000660565b620006cb81856200066b565b9350620006dd8185602086016200067c565b620006e881620002cb565b840191505092915050565b620006fe8162000423565b82525050565b60006080820190506200071b600083018762000540565b81810360208301526200072f8186620006b2565b90508181036040830152620007458185620006b2565b9050620007566060830184620006f3565b9594505050505056fe608060405260006004553480156200001657600080fd5b50604051620020373803806200203783398181016040528101906200003c919062000439565b600283511162000083576040517f08c379a00000000000000000000000000000000000000000000000000000000081526004016200007a9062000570565b60405180910390fd5b60008111620000c9576040517f08c379a0000000000000000000000000000000000000000000000000000000008152600401620000c09062000608565b60405180910390fd5b836000806101000a81548173ffffffffffffffffffffffffffffffffffffffff021916908373ffffffffffffffffffffffffffffffffffffffff1602179055508260019080519060200190620001219291906200014c565b5081600290805190602001906200013a9291906200014c565b5080600381905550505050506200068f565b8280546200015a9062000659565b90600052602060002090601f0160209004810192826200017e5760008555620001ca565b82601f106200019957805160ff1916838001178555620001ca565b82800160010185558215620001ca579182015b82811115620001c9578251825591602001919060010190620001ac565b5b509050620001d99190620001dd565b5090565b5b80821115620001f8576000816000905550600101620001de565b5090565b6000604051905090565b600080fd5b600080fd5b600073ffffffffffffffffffffffffffffffffffffffff82169050919050565b60006200023d8262000210565b9050919050565b6200024f8162000230565b81146200025b57600080fd5b50565b6000815190506200026f8162000244565b92915050565b600080fd5b600080fd5b6000601f19601f8301169050919050565b7f4e487b7100000000000000000000000000000000000000000000000000000000600052604160045260246000fd5b620002ca826200027f565b810181811067ffffffffffffffff82111715620002ec57620002eb62000290565b5b80604052505050565b600062000301620001fc565b90506200030f8282620002bf565b919050565b600067ffffffffffffffff82111562000332576200033162000290565b5b6200033d826200027f565b9050602081019050919050565b60005b838110156200036a5780820151818401526020810190506200034d565b838111156200037a576000848401525b50505050565b600062000397620003918462000314565b620002f5565b905082815260208101848484011115620003b657620003b56200027a565b5b620003c38482856200034a565b509392505050565b600082601f830112620003e357620003e262000275565b5b8151620003f584826020860162000380565b91505092915050565b6000819050919050565b6200041381620003fe565b81146200041f57600080fd5b50565b600081519050620004338162000408565b92915050565b6000806000806080858703121562000456576200045562000206565b5b600062000466878288016200025e565b945050602085015167ffffffffffffffff8111156200048a57620004896200020b565b5b6200049887828801620003cb565b935050604085015167ffffffffffffffff811115620004bc57620004bb6200020b565b5b620004ca87828801620003cb565b9250506060620004dd8782880162000422565b91505092959194509250565b600082825260208201905092915050565b7f46756e64204e616d652073686f756c6420686176652070726f7065722074697460008201527f6c65000000000000000000000000000000000000000000000000000000000000602082015250565b600062000558602283620004e9565b91506200056582620004fa565b604082019050919050565b600060208201905081810360008301526200058b8162000549565b9050919050565b7f4d696e696d756d20616d6f756e74206f66206574682073686f7564206772656160008201527f746572207468616e203000000000000000000000000000000000000000000000602082015250565b6000620005f0602a83620004e9565b9150620005fd8262000592565b604082019050919050565b600060208201905081810360008301526200062381620005e1565b9050919050565b7f4e487b7100000000000000000000000000000000000000000000000000000000600052602260045260246000fd5b600060028204905060018216806200067257607f821691505b602082108114156200068957620006886200062a565b5b50919050565b611998806200069f6000396000f3fe6080604052600436106100c25760003560e01c806382fde0931161007f578063c0d5bce511610059578063c0d5bce514610264578063c774126514610280578063ed88c68e146102a9578063fbbf93a0146102b3576100c2565b806382fde093146101e35780639b2cb5d81461020e5780639ce1413b14610239576100c2565b80630a144391146100c757806312065fe014610104578063481c6a751461012f5780634cb6f4a51461015a57806355f150f11461017657806381d12c58146101a1575b600080fd5b3480156100d357600080fd5b506100ee60048036038101906100e99190610fa7565b6102e1565b6040516100fb9190610fed565b60405180910390f35b34801561011057600080fd5b506101196102f9565b6040516101269190610fed565b60405180910390f35b34801561013b57600080fd5b50610144610301565b6040516101519190611017565b60405180910390f35b610174600480360381019061016f919061105e565b610325565b005b34801561018257600080fd5b5061018b6104c4565b6040516101989190611124565b60405180910390f35b3480156101ad57600080fd5b506101c860048036038101906101c3919061105e565b610552565b6040516101da96959493929190611182565b60405180910390f35b3480156101ef57600080fd5b506101f86106db565b6040516102059190610fed565b60405180910390f35b34801561021a57600080fd5b506102236106e1565b6040516102309190610fed565b60405180910390f35b34801561024557600080fd5b5061024e6106e7565b60405161025b9190611124565b60405180910390f35b61027e6004803603810190610279919061105e565b610775565b005b34801561028c57600080fd5b506102a760048036038101906102a29190611326565b610aa0565b005b6102b1610c0b565b005b3480156102bf57600080fd5b506102c8610d3e565b6040516102d894939291906113c5565b60405180910390f35b60056020528060005260406000206000915090505481565b600047905090565b60008054906101000a900473ffffffffffffffffffffffffffffffffffffffff1681565b6000811015801561033a575060068054905081105b610379576040517f08c379a00000000000000000000000000000000000000000000000000000000081526004016103709061148a565b60405180910390fd5b60006006828154811061038f5761038e6114aa565b5b906000526020600020906007020160060160003373ffffffffffffffffffffffffffffffffffffffff1673ffffffffffffffffffffffffffffffffffffffff168152602001908152602001600020541461041e576040517f08c379a000000000000000000000000000000000000000000000000000000000815260040161041590611525565b60405180910390fd5b600160068281548110610434576104336114aa565b5b906000526020600020906007020160060160003373ffffffffffffffffffffffffffffffffffffffff1673ffffffffffffffffffffffffffffffffffffffff168152602001908152602001600020819055506006818154811061049a576104996114aa565b5b906000526020600020906007020160040160008154809291906104bc90611574565b919050555050565b600280546104d1906115ec565b80601f01602080910402602001604051908101604052809291908181526020018280546104fd906115ec565b801561054a5780601f1061051f5761010080835404028352916020019161054a565b820191906000526020600020905b81548152906001019060200180831161052d57829003601f168201915b505050505081565b6006818154811061056257600080fd5b9060005260206000209060070201600091509050806000018054610585906115ec565b80601f01602080910402602001604051908101604052809291908181526020018280546105b1906115ec565b80156105fe5780601f106105d3576101008083540402835291602001916105fe565b820191906000526020600020905b8154815290600101906020018083116105e157829003601f168201915b505050505090806001018054610613906115ec565b80601f016020809104026020016040519081016040528092919081815260200182805461063f906115ec565b801561068c5780601f106106615761010080835404028352916020019161068c565b820191906000526020600020905b81548152906001019060200180831161066f57829003601f168201915b5050505050908060020154908060030160009054906101000a900473ffffffffffffffffffffffffffffffffffffffff16908060040154908060050160009054906101000a900460ff16905086565b60045481565b60035481565b600180546106f4906115ec565b80601f0160208091040260200160405190810160405280929190818152602001828054610720906115ec565b801561076d5780601f106107425761010080835404028352916020019161076d565b820191906000526020600020905b81548152906001019060200180831161075057829003601f168201915b505050505081565b60008054906101000a900473ffffffffffffffffffffffffffffffffffffffff1673ffffffffffffffffffffffffffffffffffffffff163373ffffffffffffffffffffffffffffffffffffffff1614610803576040517f08c379a00000000000000000000000000000000000000000000000000000000081526004016107fa90611690565b60405180910390fd5b60008110158015610818575060068054905081105b610857576040517f08c379a000000000000000000000000000000000000000000000000000000000815260040161084e9061148a565b60405180910390fd5b600260045461086691906116df565b6006828154811061087a576108796114aa565b5b90600052602060002090600702016004015410156108cd576040517f08c379a00000000000000000000000000000000000000000000000000000000081526004016108c49061175c565b60405180910390fd5b60001515600682815481106108e5576108e46114aa565b5b906000526020600020906007020160050160009054906101000a900460ff16151514610946576040517f08c379a000000000000000000000000000000000000000000000000000000000815260040161093d906117ee565b60405180910390fd5b476006828154811061095b5761095a6114aa565b5b90600052602060002090600702016002015411156109ae576040517f08c379a00000000000000000000000000000000000000000000000000000000081526004016109a59061185a565b60405180910390fd5b600681815481106109c2576109c16114aa565b5b906000526020600020906007020160030160009054906101000a900473ffffffffffffffffffffffffffffffffffffffff1673ffffffffffffffffffffffffffffffffffffffff166108fc60068381548110610a2157610a206114aa565b5b9060005260206000209060070201600201549081150290604051600060405180830381858888f19350505050158015610a5e573d6000803e3d6000fd5b50600160068281548110610a7557610a746114aa565b5b906000526020600020906007020160050160006101000a81548160ff02191690831515021790555050565b60008054906101000a900473ffffffffffffffffffffffffffffffffffffffff1673ffffffffffffffffffffffffffffffffffffffff163373ffffffffffffffffffffffffffffffffffffffff1614610b2e576040517f08c379a0000000000000000000000000000000000000000000000000000000008152600401610b2590611690565b60405180910390fd5b47821115610b3b57600080fd5b60006006600181600181540180825580915050039060005260206000209060070201905084816000019080519060200190610b77929190610e92565b5083816001019080519060200190610b90929190610e92565b50828160020181905550818160030160006101000a81548173ffffffffffffffffffffffffffffffffffffffff021916908373ffffffffffffffffffffffffffffffffffffffff1602179055506000816004018190555060008160050160006101000a81548160ff0219169083151502179055505050505050565b600354341015610c50576040517f08c379a0000000000000000000000000000000000000000000000000000000008152600401610c47906118ec565b60405180910390fd5b6000600560003373ffffffffffffffffffffffffffffffffffffffff1673ffffffffffffffffffffffffffffffffffffffff168152602001908152602001600020541415610cae576001600454610ca7919061190c565b6004819055505b34600560003373ffffffffffffffffffffffffffffffffffffffff1673ffffffffffffffffffffffffffffffffffffffff16815260200190815260200160002054610cf9919061190c565b600560003373ffffffffffffffffffffffffffffffffffffffff1673ffffffffffffffffffffffffffffffffffffffff16815260200190815260200160002081905550565b6060806000806001600260008054906101000a900473ffffffffffffffffffffffffffffffffffffffff16600354838054610d78906115ec565b80601f0160208091040260200160405190810160405280929190818152602001828054610da4906115ec565b8015610df15780601f10610dc657610100808354040283529160200191610df1565b820191906000526020600020905b815481529060010190602001808311610dd457829003601f168201915b50505050509350828054610e04906115ec565b80601f0160208091040260200160405190810160405280929190818152602001828054610e30906115ec565b8015610e7d5780601f10610e5257610100808354040283529160200191610e7d565b820191906000526020600020905b815481529060010190602001808311610e6057829003601f168201915b50505050509250935093509350935090919293565b828054610e9e906115ec565b90600052602060002090601f016020900481019282610ec05760008555610f07565b82601f10610ed957805160ff1916838001178555610f07565b82800160010185558215610f07579182015b82811115610f06578251825591602001919060010190610eeb565b5b509050610f149190610f18565b5090565b5b80821115610f31576000816000905550600101610f19565b5090565b6000604051905090565b600080fd5b600080fd5b600073ffffffffffffffffffffffffffffffffffffffff82169050919050565b6000610f7482610f49565b9050919050565b610f8481610f69565b8114610f8f57600080fd5b50565b600081359050610fa181610f7b565b92915050565b600060208284031215610fbd57610fbc610f3f565b5b6000610fcb84828501610f92565b91505092915050565b6000819050919050565b610fe781610fd4565b82525050565b60006020820190506110026000830184610fde565b92915050565b61101181610f69565b82525050565b600060208201905061102c6000830184611008565b92915050565b61103b81610fd4565b811461104657600080fd5b50565b60008135905061105881611032565b92915050565b60006020828403121561107457611073610f3f565b5b600061108284828501611049565b91505092915050565b600081519050919050565b600082825260208201905092915050565b60005b838110156110c55780820151818401526020810190506110aa565b838111156110d4576000848401525b50505050565b6000601f19601f8301169050919050565b60006110f68261108b565b6111008185611096565b93506111108185602086016110a7565b611119816110da565b840191505092915050565b6000602082019050818103600083015261113e81846110eb565b905092915050565b600061115182610f49565b9050919050565b61116181611146565b82525050565b60008115159050919050565b61117c81611167565b82525050565b600060c082019050818103600083015261119c81896110eb565b905081810360208301526111b081886110eb565b90506111bf6040830187610fde565b6111cc6060830186611158565b6111d96080830185610fde565b6111e660a0830184611173565b979650505050505050565b600080fd5b600080fd5b7f4e487b7100000000000000000000000000000000000000000000000000000000600052604160045260246000fd5b611233826110da565b810181811067ffffffffffffffff82111715611252576112516111fb565b5b80604052505050565b6000611265610f35565b9050611271828261122a565b919050565b600067ffffffffffffffff821115611291576112906111fb565b5b61129a826110da565b9050602081019050919050565b82818337600083830152505050565b60006112c96112c484611276565b61125b565b9050828152602081018484840111156112e5576112e46111f6565b5b6112f08482856112a7565b509392505050565b600082601f83011261130d5761130c6111f1565b5b813561131d8482602086016112b6565b91505092915050565b600080600080608085870312156113405761133f610f3f565b5b600085013567ffffffffffffffff81111561135e5761135d610f44565b5b61136a878288016112f8565b945050602085013567ffffffffffffffff81111561138b5761138a610f44565b5b611397878288016112f8565b93505060406113a887828801611049565b92505060606113b987828801610f92565b91505092959194509250565b600060808201905081810360008301526113df81876110eb565b905081810360208301526113f381866110eb565b90506114026040830185611008565b61140f6060830184610fde565b95945050505050565b7f696e646578206f7574206f6620626f756e6420666f722072657175657374206d60008201527f617070696e670000000000000000000000000000000000000000000000000000602082015250565b6000611474602683611096565b915061147f82611418565b604082019050919050565b600060208201905081810360008301526114a381611467565b9050919050565b7f4e487b7100000000000000000000000000000000000000000000000000000000600052603260045260246000fd5b7f596f7520616c726561647920766f746564000000000000000000000000000000600082015250565b600061150f601183611096565b915061151a826114d9565b602082019050919050565b6000602082019050818103600083015261153e81611502565b9050919050565b7f4e487b7100000000000000000000000000000000000000000000000000000000600052601160045260246000fd5b600061157f82610fd4565b91507fffffffffffffffffffffffffffffffffffffffffffffffffffffffffffffffff8214156115b2576115b1611545565b5b600182019050919050565b7f4e487b7100000000000000000000000000000000000000000000000000000000600052602260045260246000fd5b6000600282049050600182168061160457607f821691505b60208210811415611618576116176115bd565b5b50919050565b7f796f7520646f6e74206861766520617574686f7269747920746f20637265617460008201527f6520726571756573747300000000000000000000000000000000000000000000602082015250565b600061167a602a83611096565b91506116858261161e565b604082019050919050565b600060208201905081810360008301526116a98161166d565b9050919050565b7f4e487b7100000000000000000000000000000000000000000000000000000000600052601260045260246000fd5b60006116ea82610fd4565b91506116f583610fd4565b925082611705576117046116b0565b5b828204905092915050565b7f4e4f54206d616a6f726974790000000000000000000000000000000000000000600082015250565b6000611746600c83611096565b915061175182611710565b602082019050919050565b6000602082019050818103600083015261177581611739565b9050919050565b7f526571756573742046696e616c697365642063616e6e6f7420646f20616e792060008201527f7461726e73616374696f6e000000000000000000000000000000000000000000602082015250565b60006117d8602b83611096565b91506117e38261177c565b604082019050919050565b60006020820190508181036000830152611807816117cb565b9050919050565b7f496e737566757563656e742062616c616e636520696e2066756e640000000000600082015250565b6000611844601b83611096565b915061184f8261180e565b602082019050919050565b6000602082019050818103600083015261187381611837565b9050919050565b7f446f6e61746174696f6e206c657373207468616e206d696e416d6f756e74206960008201527f73206e6f74206163636570746564000000000000000000000000000000000000602082015250565b60006118d6602e83611096565b91506118e18261187a565b604082019050919050565b60006020820190508181036000830152611905816118c9565b9050919050565b600061191782610fd4565b915061192283610fd4565b9250827fffffffffffffffffffffffffffffffffffffffffffffffffffffffffffffffff0382111561195757611956611545565b5b82820190509291505056fea2646970667358221220a1ab0f865d0a9f7032060973918bfac0dfc604e76931fba70e48e392020791a064736f6c634300080b0033a26469706673582212208e1ff839eaf69a0daad2734020d372ed3a54ab0ba242aac0b533ac1183659ad264736f6c634300080b0033",
  "immutableReferences": {},
  "source": "// SPDX-License-Identifier: MIT\r\nimport './Fund.sol';\r\npragma solidity >=0.4.22 <0.9.0;\r\ncontract FundFactory{\r\n  address[] public funds;\r\n  function createFund(address _manager,string  memory _fundName,string memory _desc,uint  _minAmount) public{\r\n    funds.push(address(new Fund(_manager,_fundName,_desc,_minAmount)));\r\n  }\r\n  function getFundsDetails() public view returns(address [] memory){\r\n    return funds;\r\n  }\r\n}\r\n",
  "sourcePath": "C:\\Users\\Ritik Kumar\\Desktop\\charity-fund\\contracts\\FundFactory.sol",
  "compiler": {
    "name": "solc",
    "version": "0.8.11+commit.d7f03943.Emscripten.clang"
  },
  "schemaVersion": "3.4.4",
  "updatedAt": "2022-02-27T14:50:35.224Z",
  "networkType": "ethereum",
  "devdoc": {
    "kind": "dev",
    "methods": {},
    "version": 1
  },
  "userdoc": {
    "kind": "user",
    "methods": {},
    "version": 1
  }
}