{
  "contractName": "FundFactory",
  "abi": [
    {
      "inputs": [
        {
          "internalType": "uint256",
          "name": "",
          "type": "uint256"
        }
      ],
      "name": "funds",
      "outputs": [
        {
          "internalType": "address",
          "name": "",
          "type": "address"
        }
      ],
      "stateMutability": "view",
      "type": "function",
      "constant": true
    },
    {
      "inputs": [
        {
          "internalType": "string",
          "name": "_fundName",
          "type": "string"
        },
        {
          "internalType": "string",
          "name": "_desc",
          "type": "string"
        },
        {
          "internalType": "uint256",
          "name": "_minAmount",
          "type": "uint256"
        }
      ],
      "name": "createFund",
      "outputs": [],
      "stateMutability": "payable",
      "type": "function",
      "payable": true
    },
    {
      "inputs": [],
      "name": "getFundsDetails",
      "outputs": [
        {
          "internalType": "address[]",
          "name": "",
          "type": "address[]"
        }
      ],
      "stateMutability": "view",
      "type": "function",
      "constant": true
    }
  ],
  "bytecode": "0x608060405234801561001057600080fd5b50612cb0806100206000396000f3fe608060405260043610620000385760003560e01c80634d21cb4b146200003d5780637b8e8895146200005d578063cbf31b9c14620000a1575b600080fd5b6200005b600480360381019062000055919062000406565b620000d1565b005b3480156200006a57600080fd5b50620000896004803603810190620000839190620004a0565b62000177565b60405162000098919062000517565b60405180910390f35b348015620000ae57600080fd5b50620000b9620001b7565b604051620000c8919062000602565b60405180910390f35b600033848484604051620000e59062000247565b620000f49493929190620006ca565b604051809103906000f08015801562000111573d6000803e3d6000fd5b509080600181540180825580915050600190039060005260206000200160009091909190916101000a81548173ffffffffffffffffffffffffffffffffffffffff021916908373ffffffffffffffffffffffffffffffffffffffff160217905550505050565b600081815481106200018857600080fd5b906000526020600020016000915054906101000a900473ffffffffffffffffffffffffffffffffffffffff1681565b606060008054806020026020016040519081016040528092919081815260200182805480156200023d57602002820191906000526020600020905b8160009054906101000a900473ffffffffffffffffffffffffffffffffffffffff1673ffffffffffffffffffffffffffffffffffffffff1681526020019060010190808311620001f2575b5050505050905090565b612555806200072683390190565b6000604051905090565b600080fd5b600080fd5b600080fd5b600080fd5b6000601f19601f8301169050919050565b7f4e487b7100000000000000000000000000000000000000000000000000000000600052604160045260246000fd5b620002be8262000273565b810181811067ffffffffffffffff82111715620002e057620002df62000284565b5b80604052505050565b6000620002f562000255565b9050620003038282620002b3565b919050565b600067ffffffffffffffff82111562000326576200032562000284565b5b620003318262000273565b9050602081019050919050565b82818337600083830152505050565b6000620003646200035e8462000308565b620002e9565b9050828152602081018484840111156200038357620003826200026e565b5b620003908482856200033e565b509392505050565b600082601f830112620003b057620003af62000269565b5b8135620003c28482602086016200034d565b91505092915050565b6000819050919050565b620003e081620003cb565b8114620003ec57600080fd5b50565b6000813590506200040081620003d5565b92915050565b6000806000606084860312156200042257620004216200025f565b5b600084013567ffffffffffffffff81111562000443576200044262000264565b5b620004518682870162000398565b935050602084013567ffffffffffffffff81111562000475576200047462000264565b5b620004838682870162000398565b92505060406200049686828701620003ef565b9150509250925092565b600060208284031215620004b957620004b86200025f565b5b6000620004c984828501620003ef565b91505092915050565b600073ffffffffffffffffffffffffffffffffffffffff82169050919050565b6000620004ff82620004d2565b9050919050565b6200051181620004f2565b82525050565b60006020820190506200052e600083018462000506565b92915050565b600081519050919050565b600082825260208201905092915050565b6000819050602082019050919050565b6200056b81620004f2565b82525050565b60006200057f838362000560565b60208301905092915050565b6000602082019050919050565b6000620005a58262000534565b620005b181856200053f565b9350620005be8362000550565b8060005b83811015620005f5578151620005d9888262000571565b9750620005e6836200058b565b925050600181019050620005c2565b5085935050505092915050565b600060208201905081810360008301526200061e818462000598565b905092915050565b600081519050919050565b600082825260208201905092915050565b60005b838110156200066257808201518184015260208101905062000645565b8381111562000672576000848401525b50505050565b6000620006858262000626565b62000691818562000631565b9350620006a381856020860162000642565b620006ae8162000273565b840191505092915050565b620006c481620003cb565b82525050565b6000608082019050620006e1600083018762000506565b8181036020830152620006f5818662000678565b905081810360408301526200070b818562000678565b90506200071c6060830184620006b9565b9594505050505056fe608060405260006004553480156200001657600080fd5b50604051620025553803806200255583398181016040528101906200003c919062000439565b600283511162000083576040517f08c379a00000000000000000000000000000000000000000000000000000000081526004016200007a9062000570565b60405180910390fd5b60008111620000c9576040517f08c379a0000000000000000000000000000000000000000000000000000000008152600401620000c09062000608565b60405180910390fd5b836000806101000a81548173ffffffffffffffffffffffffffffffffffffffff021916908373ffffffffffffffffffffffffffffffffffffffff1602179055508260019080519060200190620001219291906200014c565b5081600290805190602001906200013a9291906200014c565b5080600381905550505050506200068f565b8280546200015a9062000659565b90600052602060002090601f0160209004810192826200017e5760008555620001ca565b82601f106200019957805160ff1916838001178555620001ca565b82800160010185558215620001ca579182015b82811115620001c9578251825591602001919060010190620001ac565b5b509050620001d99190620001dd565b5090565b5b80821115620001f8576000816000905550600101620001de565b5090565b6000604051905090565b600080fd5b600080fd5b600073ffffffffffffffffffffffffffffffffffffffff82169050919050565b60006200023d8262000210565b9050919050565b6200024f8162000230565b81146200025b57600080fd5b50565b6000815190506200026f8162000244565b92915050565b600080fd5b600080fd5b6000601f19601f8301169050919050565b7f4e487b7100000000000000000000000000000000000000000000000000000000600052604160045260246000fd5b620002ca826200027f565b810181811067ffffffffffffffff82111715620002ec57620002eb62000290565b5b80604052505050565b600062000301620001fc565b90506200030f8282620002bf565b919050565b600067ffffffffffffffff82111562000332576200033162000290565b5b6200033d826200027f565b9050602081019050919050565b60005b838110156200036a5780820151818401526020810190506200034d565b838111156200037a576000848401525b50505050565b600062000397620003918462000314565b620002f5565b905082815260208101848484011115620003b657620003b56200027a565b5b620003c38482856200034a565b509392505050565b600082601f830112620003e357620003e262000275565b5b8151620003f584826020860162000380565b91505092915050565b6000819050919050565b6200041381620003fe565b81146200041f57600080fd5b50565b600081519050620004338162000408565b92915050565b6000806000806080858703121562000456576200045562000206565b5b600062000466878288016200025e565b945050602085015167ffffffffffffffff8111156200048a57620004896200020b565b5b6200049887828801620003cb565b935050604085015167ffffffffffffffff811115620004bc57620004bb6200020b565b5b620004ca87828801620003cb565b9250506060620004dd8782880162000422565b91505092959194509250565b600082825260208201905092915050565b7f46756e64204e616d652073686f756c6420686176652070726f7065722074697460008201527f6c65000000000000000000000000000000000000000000000000000000000000602082015250565b600062000558602283620004e9565b91506200056582620004fa565b604082019050919050565b600060208201905081810360008301526200058b8162000549565b9050919050565b7f4d696e696d756d20616d6f756e74206f66206574682073686f7564206772656160008201527f746572207468616e203000000000000000000000000000000000000000000000602082015250565b6000620005f0602a83620004e9565b9150620005fd8262000592565b604082019050919050565b600060208201905081810360008301526200062381620005e1565b9050919050565b7f4e487b7100000000000000000000000000000000000000000000000000000000600052602260045260246000fd5b600060028204905060018216806200067257607f821691505b602082108114156200068957620006886200062a565b5b50919050565b611eb6806200069f6000396000f3fe6080604052600436106100dd5760003560e01c80639b2cb5d81161007f578063c774126511610059578063c77412651461029b578063d2514e84146102c4578063ed88c68e14610301578063fbbf93a01461030b576100dd565b80639b2cb5d8146102295780639ce1413b14610254578063c0d5bce51461027f576100dd565b80634cb6f4a5116100bb5780634cb6f4a51461017557806355f150f11461019157806381d12c58146101bc57806382fde093146101fe576100dd565b80630a144391146100e257806312065fe01461011f578063481c6a751461014a575b600080fd5b3480156100ee57600080fd5b50610109600480360381019061010491906113bc565b61033a565b6040516101169190611402565b60405180910390f35b34801561012b57600080fd5b50610134610352565b6040516101419190611402565b60405180910390f35b34801561015657600080fd5b5061015f61035a565b60405161016c919061142c565b60405180910390f35b61018f600480360381019061018a9190611473565b61037e565b005b34801561019d57600080fd5b506101a6610817565b6040516101b39190611539565b60405180910390f35b3480156101c857600080fd5b506101e360048036038101906101de9190611473565b6108a5565b6040516101f596959493929190611597565b60405180910390f35b34801561020a57600080fd5b50610213610a2e565b6040516102209190611402565b60405180910390f35b34801561023557600080fd5b5061023e610a34565b60405161024b9190611402565b60405180910390f35b34801561026057600080fd5b50610269610a3a565b6040516102769190611539565b60405180910390f35b61029960048036038101906102949190611473565b610ac8565b005b3480156102a757600080fd5b506102c260048036038101906102bd919061173b565b610e09565b005b3480156102d057600080fd5b506102eb60048036038101906102e691906113bc565b610f74565b6040516102f89190611402565b60405180910390f35b610309610f8c565b005b34801561031757600080fd5b5061032061114d565b6040516103319594939291906117da565b60405180910390f35b60056020528060005260406000206000915090505481565b600047905090565b60008054906101000a900473ffffffffffffffffffffffffffffffffffffffff1681565b60008110158015610393575060078054905081105b6103d2576040517f08c379a00000000000000000000000000000000000000000000000000000000081526004016103c9906118ad565b60405180910390fd5b60001515600782815481106103ea576103e96118cd565b5b906000526020600020906005020160030160149054906101000a900460ff1615151461044b576040517f08c379a000000000000000000000000000000000000000000000000000000000815260040161044290611948565b60405180910390fd5b6007818154811061045f5761045e6118cd565b5b90600052602060002090600502016002015460078281548110610485576104846118cd565b5b906000526020600020906005020160040154106104d7576040517f08c379a00000000000000000000000000000000000000000000000000000000081526004016104ce906119da565b60405180910390fd5b6000600560003373ffffffffffffffffffffffffffffffffffffffff1673ffffffffffffffffffffffffffffffffffffffff1681526020019081526020016000205411610559576040517f08c379a000000000000000000000000000000000000000000000000000000000815260040161055090611a92565b60405180910390fd5b6007818154811061056d5761056c6118cd565b5b90600052602060002090600502016004015460078281548110610593576105926118cd565b5b9060005260206000209060050201600201546105af9190611ae1565b600560003373ffffffffffffffffffffffffffffffffffffffff1673ffffffffffffffffffffffffffffffffffffffff1681526020019081526020016000205411156107355760006007828154811061060b5761060a6118cd565b5b906000526020600020906005020160040154600560003373ffffffffffffffffffffffffffffffffffffffff1673ffffffffffffffffffffffffffffffffffffffff168152602001908152602001600020546106679190611b15565b90506007828154811061067d5761067c6118cd565b5b9060005260206000209060050201600201548161069a9190611ae1565b905080600560003373ffffffffffffffffffffffffffffffffffffffff1673ffffffffffffffffffffffffffffffffffffffff16815260200190815260200160002081905550600782815481106106f4576106f36118cd565b5b9060005260206000209060050201600201546007838154811061071a576107196118cd565b5b90600052602060002090600502016004018190555050610814565b600560003373ffffffffffffffffffffffffffffffffffffffff1673ffffffffffffffffffffffffffffffffffffffff1681526020019081526020016000205460078281548110610789576107886118cd565b5b9060005260206000209060050201600401546107a59190611b15565b600782815481106107b9576107b86118cd565b5b9060005260206000209060050201600401819055506000600560003373ffffffffffffffffffffffffffffffffffffffff1673ffffffffffffffffffffffffffffffffffffffff168152602001908152602001600020819055505b50565b6002805461082490611b9a565b80601f016020809104026020016040519081016040528092919081815260200182805461085090611b9a565b801561089d5780601f106108725761010080835404028352916020019161089d565b820191906000526020600020905b81548152906001019060200180831161088057829003601f168201915b505050505081565b600781815481106108b557600080fd5b90600052602060002090600502016000915090508060000180546108d890611b9a565b80601f016020809104026020016040519081016040528092919081815260200182805461090490611b9a565b80156109515780601f1061092657610100808354040283529160200191610951565b820191906000526020600020905b81548152906001019060200180831161093457829003601f168201915b50505050509080600101805461096690611b9a565b80601f016020809104026020016040519081016040528092919081815260200182805461099290611b9a565b80156109df5780601f106109b4576101008083540402835291602001916109df565b820191906000526020600020905b8154815290600101906020018083116109c257829003601f168201915b5050505050908060020154908060030160009054906101000a900473ffffffffffffffffffffffffffffffffffffffff16908060030160149054906101000a900460ff16908060040154905086565b60045481565b60035481565b60018054610a4790611b9a565b80601f0160208091040260200160405190810160405280929190818152602001828054610a7390611b9a565b8015610ac05780601f10610a9557610100808354040283529160200191610ac0565b820191906000526020600020905b815481529060010190602001808311610aa357829003601f168201915b505050505081565b60008054906101000a900473ffffffffffffffffffffffffffffffffffffffff1673ffffffffffffffffffffffffffffffffffffffff163373ffffffffffffffffffffffffffffffffffffffff1614610b56576040517f08c379a0000000000000000000000000000000000000000000000000000000008152600401610b4d90611c3e565b60405180910390fd5b60008110158015610b6b575060078054905081105b610baa576040517f08c379a0000000000000000000000000000000000000000000000000000000008152600401610ba1906118ad565b60405180910390fd5b6000151560078281548110610bc257610bc16118cd565b5b906000526020600020906005020160030160149054906101000a900460ff16151514610c23576040517f08c379a0000000000000000000000000000000000000000000000000000000008152600401610c1a90611cd0565b60405180910390fd5b4760078281548110610c3857610c376118cd565b5b9060005260206000209060050201600201541115610c8b576040517f08c379a0000000000000000000000000000000000000000000000000000000008152600401610c8290611d3c565b60405180910390fd5b60078181548110610c9f57610c9e6118cd565b5b90600052602060002090600502016002015460078281548110610cc557610cc46118cd565b5b90600052602060002090600502016004015414610d17576040517f08c379a0000000000000000000000000000000000000000000000000000000008152600401610d0e90611dce565b60405180910390fd5b60078181548110610d2b57610d2a6118cd565b5b906000526020600020906005020160030160009054906101000a900473ffffffffffffffffffffffffffffffffffffffff1673ffffffffffffffffffffffffffffffffffffffff166108fc60078381548110610d8a57610d896118cd565b5b9060005260206000209060050201600201549081150290604051600060405180830381858888f19350505050158015610dc7573d6000803e3d6000fd5b50600160078281548110610dde57610ddd6118cd565b5b906000526020600020906005020160030160146101000a81548160ff02191690831515021790555050565b60008054906101000a900473ffffffffffffffffffffffffffffffffffffffff1673ffffffffffffffffffffffffffffffffffffffff163373ffffffffffffffffffffffffffffffffffffffff1614610e97576040517f08c379a0000000000000000000000000000000000000000000000000000000008152600401610e8e90611c3e565b60405180910390fd5b47821115610ea457600080fd5b60006007600181600181540180825580915050039060005260206000209060050201905084816000019080519060200190610ee09291906112a7565b5083816001019080519060200190610ef99291906112a7565b50828160020181905550818160030160006101000a81548173ffffffffffffffffffffffffffffffffffffffff021916908373ffffffffffffffffffffffffffffffffffffffff1602179055506000816004018190555060008160030160146101000a81548160ff0219169083151502179055505050505050565b60066020528060005260406000206000915090505481565b600354341015610fd1576040517f08c379a0000000000000000000000000000000000000000000000000000000008152600401610fc890611e60565b60405180910390fd5b6000600560003373ffffffffffffffffffffffffffffffffffffffff1673ffffffffffffffffffffffffffffffffffffffff16815260200190815260200160002054141561102f5760016004546110289190611b15565b6004819055505b34600560003373ffffffffffffffffffffffffffffffffffffffff1673ffffffffffffffffffffffffffffffffffffffff1681526020019081526020016000205461107a9190611b15565b600560003373ffffffffffffffffffffffffffffffffffffffff1673ffffffffffffffffffffffffffffffffffffffff1681526020019081526020016000208190555034600660003373ffffffffffffffffffffffffffffffffffffffff1673ffffffffffffffffffffffffffffffffffffffff168152602001908152602001600020546111089190611b15565b600660003373ffffffffffffffffffffffffffffffffffffffff1673ffffffffffffffffffffffffffffffffffffffff16815260200190815260200160002081905550565b60608060008060006001600260008054906101000a900473ffffffffffffffffffffffffffffffffffffffff164760035484805461118a90611b9a565b80601f01602080910402602001604051908101604052809291908181526020018280546111b690611b9a565b80156112035780601f106111d857610100808354040283529160200191611203565b820191906000526020600020905b8154815290600101906020018083116111e657829003601f168201915b5050505050945083805461121690611b9a565b80601f016020809104026020016040519081016040528092919081815260200182805461124290611b9a565b801561128f5780601f106112645761010080835404028352916020019161128f565b820191906000526020600020905b81548152906001019060200180831161127257829003601f168201915b50505050509350945094509450945094509091929394565b8280546112b390611b9a565b90600052602060002090601f0160209004810192826112d5576000855561131c565b82601f106112ee57805160ff191683800117855561131c565b8280016001018555821561131c579182015b8281111561131b578251825591602001919060010190611300565b5b509050611329919061132d565b5090565b5b8082111561134657600081600090555060010161132e565b5090565b6000604051905090565b600080fd5b600080fd5b600073ffffffffffffffffffffffffffffffffffffffff82169050919050565b60006113898261135e565b9050919050565b6113998161137e565b81146113a457600080fd5b50565b6000813590506113b681611390565b92915050565b6000602082840312156113d2576113d1611354565b5b60006113e0848285016113a7565b91505092915050565b6000819050919050565b6113fc816113e9565b82525050565b600060208201905061141760008301846113f3565b92915050565b6114268161137e565b82525050565b6000602082019050611441600083018461141d565b92915050565b611450816113e9565b811461145b57600080fd5b50565b60008135905061146d81611447565b92915050565b60006020828403121561148957611488611354565b5b60006114978482850161145e565b91505092915050565b600081519050919050565b600082825260208201905092915050565b60005b838110156114da5780820151818401526020810190506114bf565b838111156114e9576000848401525b50505050565b6000601f19601f8301169050919050565b600061150b826114a0565b61151581856114ab565b93506115258185602086016114bc565b61152e816114ef565b840191505092915050565b600060208201905081810360008301526115538184611500565b905092915050565b60006115668261135e565b9050919050565b6115768161155b565b82525050565b60008115159050919050565b6115918161157c565b82525050565b600060c08201905081810360008301526115b18189611500565b905081810360208301526115c58188611500565b90506115d460408301876113f3565b6115e1606083018661156d565b6115ee6080830185611588565b6115fb60a08301846113f3565b979650505050505050565b600080fd5b600080fd5b7f4e487b7100000000000000000000000000000000000000000000000000000000600052604160045260246000fd5b611648826114ef565b810181811067ffffffffffffffff8211171561166757611666611610565b5b80604052505050565b600061167a61134a565b9050611686828261163f565b919050565b600067ffffffffffffffff8211156116a6576116a5611610565b5b6116af826114ef565b9050602081019050919050565b82818337600083830152505050565b60006116de6116d98461168b565b611670565b9050828152602081018484840111156116fa576116f961160b565b5b6117058482856116bc565b509392505050565b600082601f83011261172257611721611606565b5b81356117328482602086016116cb565b91505092915050565b6000806000806080858703121561175557611754611354565b5b600085013567ffffffffffffffff81111561177357611772611359565b5b61177f8782880161170d565b945050602085013567ffffffffffffffff8111156117a05761179f611359565b5b6117ac8782880161170d565b93505060406117bd8782880161145e565b92505060606117ce878288016113a7565b91505092959194509250565b600060a08201905081810360008301526117f48188611500565b905081810360208301526118088187611500565b9050611817604083018661141d565b61182460608301856113f3565b61183160808301846113f3565b9695505050505050565b7f696e646578206f7574206f6620626f756e6420666f722072657175657374206d60008201527f617070696e670000000000000000000000000000000000000000000000000000602082015250565b60006118976026836114ab565b91506118a28261183b565b604082019050919050565b600060208201905081810360008301526118c68161188a565b9050919050565b7f4e487b7100000000000000000000000000000000000000000000000000000000600052603260045260246000fd5b7f526571756573742046696e616c6973656420616c726561647900000000000000600082015250565b60006119326019836114ab565b915061193d826118fc565b602082019050919050565b6000602082019050818103600083015261196181611925565b9050919050565b7f526571756573742068617320676174686572656420726571756573746564206160008201527f6d6f756e74000000000000000000000000000000000000000000000000000000602082015250565b60006119c46025836114ab565b91506119cf82611968565b604082019050919050565b600060208201905081810360008301526119f3816119b7565b9050919050565b7f596f7520646f6e74206861766520656e6f75676820766f74696e6720706f776560008201527f722e4f627461696e20766f74696e6720706f7765722062792072616973696e6760208201527f2066756e64000000000000000000000000000000000000000000000000000000604082015250565b6000611a7c6045836114ab565b9150611a87826119fa565b606082019050919050565b60006020820190508181036000830152611aab81611a6f565b9050919050565b7f4e487b7100000000000000000000000000000000000000000000000000000000600052601160045260246000fd5b6000611aec826113e9565b9150611af7836113e9565b925082821015611b0a57611b09611ab2565b5b828203905092915050565b6000611b20826113e9565b9150611b2b836113e9565b9250827fffffffffffffffffffffffffffffffffffffffffffffffffffffffffffffffff03821115611b6057611b5f611ab2565b5b828201905092915050565b7f4e487b7100000000000000000000000000000000000000000000000000000000600052602260045260246000fd5b60006002820490506001821680611bb257607f821691505b60208210811415611bc657611bc5611b6b565b5b50919050565b7f796f7520646f6e74206861766520617574686f7269747920746f20637265617460008201527f6520726571756573747300000000000000000000000000000000000000000000602082015250565b6000611c28602a836114ab565b9150611c3382611bcc565b604082019050919050565b60006020820190508181036000830152611c5781611c1b565b9050919050565b7f526571756573742046696e616c697365642063616e6e6f7420646f20616e792060008201527f7461726e73616374696f6e000000000000000000000000000000000000000000602082015250565b6000611cba602b836114ab565b9150611cc582611c5e565b604082019050919050565b60006020820190508181036000830152611ce981611cad565b9050919050565b7f496e737566757563656e742062616c616e636520696e2066756e640000000000600082015250565b6000611d26601b836114ab565b9150611d3182611cf0565b602082019050919050565b60006020820190508181036000830152611d5581611d19565b9050919050565b7f4e6f74206d616a6f72697479206f7220746172676574206e6f7420616368696560008201527f7665640000000000000000000000000000000000000000000000000000000000602082015250565b6000611db86023836114ab565b9150611dc382611d5c565b604082019050919050565b60006020820190508181036000830152611de781611dab565b9050919050565b7f446f6e61746174696f6e206c657373207468616e206d696e416d6f756e74206960008201527f73206e6f74206163636570746564000000000000000000000000000000000000602082015250565b6000611e4a602e836114ab565b9150611e5582611dee565b604082019050919050565b60006020820190508181036000830152611e7981611e3d565b905091905056fea26469706673582212204d9a1fa0a0bffba8e468455daa8d8be1c61ffe25e71d50c810116baa4b3cbfd464736f6c634300080b0033a26469706673582212200d082f3569c5522f92d8da012ea725a273ea71de588a17b8c936db9a7bd30b8364736f6c634300080b0033",
  "immutableReferences": {},
  "source": "// SPDX-License-Identifier: MIT\r\nimport \"./Fund.sol\";\r\npragma solidity >=0.4.22 <0.9.0;\r\ncontract FundFactory{\r\n    address[] public funds;\r\n    function createFund(string  memory _fundName,string memory _desc,uint  _minAmount)  public payable {\r\n      funds.push(address(new Fund(address(msg.sender),_fundName,_desc,_minAmount)));\r\n\r\n    }\r\n    function getFundsDetails() public view returns(address [] memory){\r\n        return funds;\r\n\r\n    }\r\n\r\n}\r\n",
  "sourcePath": "C:\\Users\\Ritik Kumar\\Desktop\\charity-fund\\contracts\\FundFactory.sol",
  "compiler": {
    "name": "solc",
    "version": "0.8.11+commit.d7f03943.Emscripten.clang"
  },
  "schemaVersion": "3.4.4",
  "updatedAt": "2022-04-05T14:47:09.625Z",
  "networkType": "ethereum",
  "devdoc": {
    "kind": "dev",
    "methods": {},
    "version": 1
  },
  "userdoc": {
    "kind": "user",
    "methods": {},
    "version": 1
  }
}